{"contracts/LendingContract.sol":{"LendingContract":{"abi":[{"inputs":[{"internalType":"uint256","name":"_interestRate","type":"uint256"},{"internalType":"uint256","name":"_liquidationThreshold","type":"uint256"}],"stateMutability":"payable","type":"constructor"},{"anonymous":false,"inputs":[{"indexed":false,"internalType":"address","name":"borrower","type":"address"},{"indexed":false,"internalType":"uint256","name":"amount","type":"uint256"}],"name":"CollateralDeposited","type":"event"},{"anonymous":false,"inputs":[{"indexed":false,"internalType":"address","name":"borrower","type":"address"},{"indexed":false,"internalType":"uint256","name":"amount","type":"uint256"}],"name":"CollateralWithdrawn","type":"event"},{"anonymous":false,"inputs":[{"indexed":false,"internalType":"address","name":"borrower","type":"address"},{"indexed":false,"internalType":"uint256","name":"collateralAmount","type":"uint256"}],"name":"Liquidated","type":"event"},{"anonymous":false,"inputs":[{"indexed":false,"internalType":"address","name":"borrower","type":"address"},{"indexed":false,"internalType":"uint256","name":"amount","type":"uint256"},{"indexed":false,"internalType":"uint256","name":"interest","type":"uint256"}],"name":"LoanRepaid","type":"event"},{"anonymous":false,"inputs":[{"indexed":false,"internalType":"address","name":"borrower","type":"address"},{"indexed":false,"internalType":"uint256","name":"amount","type":"uint256"}],"name":"LoanTaken","type":"event"},{"inputs":[],"name":"BUFFER_TIME","outputs":[{"internalType":"uint256","name":"","type":"uint256"}],"stateMutability":"view","type":"function"},{"inputs":[],"name":"INTEREST_DECIMALS","outputs":[{"internalType":"uint256","name":"","type":"uint256"}],"stateMutability":"view","type":"function"},{"inputs":[],"name":"SECONDS_IN_YEAR","outputs":[{"internalType":"uint256","name":"","type":"uint256"}],"stateMutability":"view","type":"function"},{"inputs":[{"internalType":"uint256","name":"amount","type":"uint256"}],"name":"borrow","outputs":[],"stateMutability":"nonpayable","type":"function"},{"inputs":[{"internalType":"uint256","name":"principal","type":"uint256"},{"internalType":"uint256","name":"timeElapsed","type":"uint256"}],"name":"calculateInterest","outputs":[{"internalType":"uint256","name":"","type":"uint256"}],"stateMutability":"view","type":"function"},{"inputs":[],"name":"depositCollateral","outputs":[],"stateMutability":"payable","type":"function"},{"inputs":[{"internalType":"address","name":"borrower","type":"address"}],"name":"getCurrentInterest","outputs":[{"internalType":"uint256","name":"","type":"uint256"}],"stateMutability":"view","type":"function"},{"inputs":[{"internalType":"address","name":"borrower","type":"address"}],"name":"getLoanDetails","outputs":[{"internalType":"uint256","name":"collateralAmount","type":"uint256"},{"internalType":"uint256","name":"loanAmount","type":"uint256"},{"internalType":"uint256","name":"timestamp","type":"uint256"},{"internalType":"bool","name":"active","type":"bool"}],"stateMutability":"view","type":"function"},{"inputs":[{"internalType":"address","name":"borrower","type":"address"}],"name":"getRequiredRepaymentAmount","outputs":[{"internalType":"uint256","name":"","type":"uint256"}],"stateMutability":"view","type":"function"},{"inputs":[{"internalType":"address","name":"borrower","type":"address"},{"internalType":"uint256","name":"customTimestamp","type":"uint256"}],"name":"getRequiredRepaymentAmountWithTimestamp","outputs":[{"internalType":"uint256","name":"","type":"uint256"}],"stateMutability":"view","type":"function"},{"inputs":[],"name":"interestRate","outputs":[{"internalType":"uint256","name":"","type":"uint256"}],"stateMutability":"view","type":"function"},{"inputs":[],"name":"lender","outputs":[{"internalType":"address","name":"","type":"address"}],"stateMutability":"view","type":"function"},{"inputs":[{"internalType":"address","name":"borrower","type":"address"}],"name":"liquidate","outputs":[],"stateMutability":"nonpayable","type":"function"},{"inputs":[],"name":"liquidationThreshold","outputs":[{"internalType":"uint256","name":"","type":"uint256"}],"stateMutability":"view","type":"function"},{"inputs":[{"internalType":"address","name":"","type":"address"}],"name":"loans","outputs":[{"internalType":"uint256","name":"collateralAmount","type":"uint256"},{"internalType":"uint256","name":"loanAmount","type":"uint256"},{"internalType":"uint256","name":"timestamp","type":"uint256"},{"internalType":"bool","name":"active","type":"bool"}],"stateMutability":"view","type":"function"},{"inputs":[],"name":"repayLoan","outputs":[],"stateMutability":"payable","type":"function"},{"inputs":[],"name":"withdrawCollateral","outputs":[],"stateMutability":"nonpayable","type":"function"},{"stateMutability":"payable","type":"receive"}],"evm":{"bytecode":{"linkReferences":{},"object":"608060405260405161155f38038061155f8339810160408190526020916044565b6001600055600280546001600160a01b031916331790556003919091556004556067565b60008060408385031215605657600080fd5b505080516020909101519092909150565b6114e9806100766000396000f3fe6080604052600436106101025760003560e01c80639aa9e84911610095578063bcead63e11610064578063bcead63e14610296578063c5ebeaec146102ce578063e8a7da8e146102ee578063efdd7c071461033e578063f966ade71461035e57600080fd5b80639aa9e84914610221578063a0a5905514610241578063ac64f52614610261578063bc7cf6e51461028157600080fd5b80635dcc9391116100d15780635dcc9391146101835780636f7581401461019b57806373b4086b146101a35780637c3a00fd1461020b57600080fd5b80632f8655681461010e5780633a5333bb146101305780634031234c1461015857806359c153be1461016e57600080fd5b3661010957005b600080fd5b34801561011a57600080fd5b5061012e61012936600461113b565b610366565b005b34801561013c57600080fd5b50610145601281565b6040519081526020015b60405180910390f35b34801561016457600080fd5b5061014560045481565b34801561017a57600080fd5b5061012e6105ba565b34801561018f57600080fd5b506101456301e1338081565b61012e610721565b3480156101af57600080fd5b506101e96101be36600461113b565b6001602081905260009182526040909120805491810154600282015460039092015490919060ff1684565b604080519485526020850193909352918301521515606082015260800161014f565b34801561021757600080fd5b5061014560035481565b34801561022d57600080fd5b5061014561023c36600461113b565b610888565b34801561024d57600080fd5b5061014561025c36600461113b565b610934565b34801561026d57600080fd5b5061014561027c366004611156565b6109a1565b34801561028d57600080fd5b50610145603c81565b3480156102a257600080fd5b506002546102b6906001600160a01b031681565b6040516001600160a01b03909116815260200161014f565b3480156102da57600080fd5b5061012e6102e9366004611180565b610a50565b3480156102fa57600080fd5b506101e961030936600461113b565b6001600160a01b0316600090815260016020819052604090912080549181015460028201546003909201549293909260ff1690565b34801561034a57600080fd5b50610145610359366004611199565b610c58565b61012e610d0e565b6002546001600160a01b031633146103d15760405162461bcd60e51b815260206004820152602360248201527f4f6e6c79206c656e6465722063616e20706572666f726d20746869732061637460448201526234b7b760e91b60648201526084015b60405180910390fd5b6103d9610f83565b6001600160a01b0381166000908152600160205260409020600381015460ff166104365760405162461bcd60e51b815260206004820152600e60248201526d27379030b1ba34bb32903637b0b760911b60448201526064016103c8565b600061044f826002015442610fdc90919063ffffffff16565b90506000610461836001015483610c58565b9050600061047c828560010154610fef90919063ffffffff16565b90506104a2606461049c6004548760000154610ffb90919063ffffffff16565b90611007565b8110156104fb5760405162461bcd60e51b815260206004820152602160248201527f4c6f616e206e6f7420656c696769626c6520666f72206c69717569646174696f6044820152603760f91b60648201526084016103c8565b83546001600160a01b03808716600090815260016020819052604080832083815591820183905560028083018490556003909201805460ff191690559054905192169183156108fc0291849190818181858888f19350505050158015610565573d6000803e3d6000fd5b50604080516001600160a01b0388168152602081018390527fa5ee7a2b0254fce91deed604506790ed7fa072d0b14cba4859c3bc8955b9caac910160405180910390a150505050506105b76001600055565b50565b6105c2610f83565b336000908152600160205260409020805461061f5760405162461bcd60e51b815260206004820152601960248201527f4e6f20636f6c6c61746572616c20746f2077697468647261770000000000000060448201526064016103c8565b600381015460ff16156106805760405162461bcd60e51b8152602060048201526024808201527f43616e6e6f74207769746864726177207768696c65206c6f616e2069732061636044820152637469766560e01b60648201526084016103c8565b8054336000818152600160208190526040808320838155918201839055600282018390556003909101805460ff191690555183156108fc0291849190818181858888f193505050501580156106d9573d6000803e3d6000fd5b5060408051338152602081018390527fc30fcfbcaac9e0deffa719714eaa82396ff506a0d0d0eebe170830177288715d910160405180910390a1505061071f6001600055565b565b610729610f83565b600034116107855760405162461bcd60e51b815260206004820152602360248201527f4d757374206465706f73697420736f6d652045544820617320636f6c6c6174656044820152621c985b60ea1b60648201526084016103c8565b3360009081526001602052604090206003015460ff16156107e85760405162461bcd60e51b815260206004820152601a60248201527f416c72656164792068617320616e20616374697665206c6f616e00000000000060448201526064016103c8565b33600081815260016020818152604080842060038101805483516080810185523480825281870189815242838801908152606084018b81529a8c9052898952925186555197850197909755516002909301929092559451151560ff199091161790935582519384528301527fd7243f6f8212d5188fd054141cf6ea89cfc0d91facb8c3afe2f88a1358480142910160405180910390a161071f6001600055565b6001600160a01b0381166000908152600160205260408120600381015460ff166108c45760405162461bcd60e51b81526004016103c8906111bb565b60006108dd826002015442610fdc90919063ffffffff16565b905060006108ef836001015483610c58565b9050600061090a828560010154610fef90919063ffffffff16565b9050600061091d8560010154603c610c58565b90506109298282610fef565b979650505050505050565b6001600160a01b0381166000908152600160205260408120600381015460ff166109705760405162461bcd60e51b81526004016103c8906111bb565b6000610989826002015442610fdc90919063ffffffff16565b9050610999826001015482610c58565b949350505050565b6001600160a01b0382166000908152600160205260408120600381015460ff166109dd5760405162461bcd60e51b81526004016103c8906111bb565b60006109f6826002015485610fdc90919063ffffffff16565b90506000610a08836001015483610c58565b90506000610a23828560010154610fef90919063ffffffff16565b90506000610a368560010154603c610c58565b9050610a428282610fef565b955050505050505b92915050565b610a58610f83565b3360009081526001602052604090208054610ab55760405162461bcd60e51b815260206004820152601760248201527f4e6f20636f6c6c61746572616c206465706f736974656400000000000000000060448201526064016103c8565b600381015460ff1615610b005760405162461bcd60e51b81526020600482015260136024820152724c6f616e20616c72656164792061637469766560681b60448201526064016103c8565b6004548154610b159160649161049c91610ffb565b821115610b795760405162461bcd60e51b815260206004820152602c60248201527f43616e6e6f7420626f72726f77206d6f7265207468616e20636f6c6c6174657260448201526b185b081d1a1c995cda1bdb1960a21b60648201526084016103c8565b81471015610bc95760405162461bcd60e51b815260206004820152601c60248201527f4e6f7420656e6f7567682066756e647320696e20636f6e74726163740000000060448201526064016103c8565b600180820183905542600283015560038201805460ff19169091179055604051339083156108fc029084906000818181858888f19350505050158015610c13573d6000803e3d6000fd5b5060408051338152602081018490527fd5c776eab9418d89c040ffee59f2310d225f5ff682191bcee59b0413a7fd4835910160405180910390a1506105b76001600055565b6000811580610c65575082155b15610c7257506000610a4a565b6000610c926301e1338061049c610c8b6012600a6112e6565b8690610ffb565b90506000610cb461271061049c610cab6012600a6112e6565b60035490610ffb565b90506000610cd1610cc76012600a6112e6565b61049c8885610ffb565b90506000610cee610ce46012600a6112e6565b61049c8487610ffb565b90508015610d0457610d01816001610fef565b90505b9695505050505050565b610d16610f83565b336000908152600160205260409020600381015460ff16610d875760405162461bcd60e51b815260206004820152602560248201527f4e6f20616374697665206c6f616e20666f756e6420666f722074686973206164604482015264647265737360d81b60648201526084016103c8565b6000816001015411610dd15760405162461bcd60e51b8152602060048201526013602482015272125b9d985b1a59081b1bd85b88185b5bdd5b9d606a1b60448201526064016103c8565b6000610dea826002015442610fdc90919063ffffffff16565b90506000610dfc836001015483610c58565b90506000610e17828560010154610fef90919063ffffffff16565b905080341015610e2682611013565b610e2f34611013565b604051602001610e40929190611316565b60405160208183030381529060405290610e6d5760405162461bcd60e51b81526004016103c891906113a9565b506000610e7a3483610fdc565b855433600090815260016020819052604080832083815591820183905560028083018490556003909201805460ff191690559054905193945091926001600160a01b03909216916108fc86150291869190818181858888f19350505050158015610ee8573d6000803e3d6000fd5b506000610ef58284610fef565b90508015610f2c57604051339082156108fc029083906000818181858888f19350505050158015610f2a573d6000803e3d6000fd5b505b600187015460408051338152602081019290925281018690527fc7ce0a35f17b490de2a317e7fecb2cae86b1abffb03800b2f4928235213826989060600160405180910390a15050505050505061071f6001600055565b600260005403610fd55760405162461bcd60e51b815260206004820152601f60248201527f5265656e7472616e637947756172643a207265656e7472616e742063616c6c0060448201526064016103c8565b6002600055565b6000610fe882846113dc565b9392505050565b6000610fe882846113ef565b6000610fe88284611402565b6000610fe8828461142f565b60608160000361103a5750506040805180820190915260018152600360fc1b602082015290565b8160005b8115611064578061104e81611443565b915061105d9050600a8361142f565b915061103e565b60008167ffffffffffffffff81111561107f5761107f61145c565b6040519080825280601f01601f1916602001820160405280156110a9576020820181803683370190505b508593509050815b8315611116576110c2600a85611472565b6110cd9060306113ef565b60f81b826110da83611486565b925082815181106110ed576110ed61149d565b60200101906001600160f81b031916908160001a90535061110f600a8561142f565b93506110b1565b50949350505050565b80356001600160a01b038116811461113657600080fd5b919050565b60006020828403121561114d57600080fd5b610fe88261111f565b6000806040838503121561116957600080fd5b6111728361111f565b946020939093013593505050565b60006020828403121561119257600080fd5b5035919050565b600080604083850312156111ac57600080fd5b50508035926020909101359150565b602080825260149082015273139bc81858dd1a5d99481b1bd85b88199bdd5b9960621b604082015260600190565b634e487b7160e01b600052601160045260246000fd5b6001815b600184111561123a5780850481111561121e5761121e6111e9565b600184161561122c57908102905b60019390931c928002611203565b935093915050565b60008261125157506001610a4a565b8161125e57506000610a4a565b8160018114611274576002811461127e5761129a565b6001915050610a4a565b60ff84111561128f5761128f6111e9565b50506001821b610a4a565b5060208310610133831016604e8410600b84101617156112bd575081810a610a4a565b6112ca60001984846111ff565b80600019048211156112de576112de6111e9565b029392505050565b6000610fe88383611242565b60005b8381101561130d5781810151838201526020016112f5565b50506000910152565b7f496e73756666696369656e742072657061796d656e7420616d6f756e742e2052815268032b8bab4b932b21d160bd1b6020820152600083516113608160298501602088016112f2565b6b0103bb2b4961029b2b73a1d160a51b602991840191820152835161138c8160358401602088016112f2565b632077656960e01b60359290910191820152603901949350505050565b60208152600082518060208401526113c88160408501602087016112f2565b601f01601f19169190910160400192915050565b81810381811115610a4a57610a4a6111e9565b80820180821115610a4a57610a4a6111e9565b8082028115828204841417610a4a57610a4a6111e9565b634e487b7160e01b600052601260045260246000fd5b60008261143e5761143e611419565b500490565b600060018201611455576114556111e9565b5060010190565b634e487b7160e01b600052604160045260246000fd5b60008261148157611481611419565b500690565b600081611495576114956111e9565b506000190190565b634e487b7160e01b600052603260045260246000fdfea2646970667358221220f52987057d7661fe57fa2f6d033681b5642f07849eee161a22a6089b199e10fe64736f6c634300081c0033","opcodes":"PUSH1 0x80 PUSH1 0x40 MSTORE PUSH1 0x40 MLOAD PUSH2 0x155F CODESIZE SUB DUP1 PUSH2 0x155F DUP4 CODECOPY DUP2 ADD PUSH1 0x40 DUP2 SWAP1 MSTORE PUSH1 0x20 SWAP2 PUSH1 0x44 JUMP JUMPDEST PUSH1 0x1 PUSH1 0x0 SSTORE PUSH1 0x2 DUP1 SLOAD PUSH1 0x1 PUSH1 0x1 PUSH1 0xA0 SHL SUB NOT AND CALLER OR SWAP1 SSTORE PUSH1 0x3 SWAP2 SWAP1 SWAP2 SSTORE PUSH1 0x4 SSTORE PUSH1 0x67 JUMP JUMPDEST PUSH1 0x0 DUP1 PUSH1 0x40 DUP4 DUP6 SUB SLT ISZERO PUSH1 0x56 JUMPI PUSH1 0x0 DUP1 REVERT JUMPDEST POP POP DUP1 MLOAD PUSH1 0x20 SWAP1 SWAP2 ADD MLOAD SWAP1 SWAP3 SWAP1 SWAP2 POP JUMP JUMPDEST PUSH2 0x14E9 DUP1 PUSH2 0x76 PUSH1 0x0 CODECOPY PUSH1 0x0 RETURN INVALID PUSH1 0x80 PUSH1 0x40 MSTORE PUSH1 0x4 CALLDATASIZE LT PUSH2 0x102 JUMPI PUSH1 0x0 CALLDATALOAD PUSH1 0xE0 SHR DUP1 PUSH4 0x9AA9E849 GT PUSH2 0x95 JUMPI DUP1 PUSH4 0xBCEAD63E GT PUSH2 0x64 JUMPI DUP1 PUSH4 0xBCEAD63E EQ PUSH2 0x296 JUMPI DUP1 PUSH4 0xC5EBEAEC EQ PUSH2 0x2CE JUMPI DUP1 PUSH4 0xE8A7DA8E EQ PUSH2 0x2EE JUMPI DUP1 PUSH4 0xEFDD7C07 EQ PUSH2 0x33E JUMPI DUP1 PUSH4 0xF966ADE7 EQ PUSH2 0x35E JUMPI PUSH1 0x0 DUP1 REVERT JUMPDEST DUP1 PUSH4 0x9AA9E849 EQ PUSH2 0x221 JUMPI DUP1 PUSH4 0xA0A59055 EQ PUSH2 0x241 JUMPI DUP1 PUSH4 0xAC64F526 EQ PUSH2 0x261 JUMPI DUP1 PUSH4 0xBC7CF6E5 EQ PUSH2 0x281 JUMPI PUSH1 0x0 DUP1 REVERT JUMPDEST DUP1 PUSH4 0x5DCC9391 GT PUSH2 0xD1 JUMPI DUP1 PUSH4 0x5DCC9391 EQ PUSH2 0x183 JUMPI DUP1 PUSH4 0x6F758140 EQ PUSH2 0x19B JUMPI DUP1 PUSH4 0x73B4086B EQ PUSH2 0x1A3 JUMPI DUP1 PUSH4 0x7C3A00FD EQ PUSH2 0x20B JUMPI PUSH1 0x0 DUP1 REVERT JUMPDEST DUP1 PUSH4 0x2F865568 EQ PUSH2 0x10E JUMPI DUP1 PUSH4 0x3A5333BB EQ PUSH2 0x130 JUMPI DUP1 PUSH4 0x4031234C EQ PUSH2 0x158 JUMPI DUP1 PUSH4 0x59C153BE EQ PUSH2 0x16E JUMPI PUSH1 0x0 DUP1 REVERT JUMPDEST CALLDATASIZE PUSH2 0x109 JUMPI STOP JUMPDEST PUSH1 0x0 DUP1 REVERT JUMPDEST CALLVALUE DUP1 ISZERO PUSH2 0x11A JUMPI PUSH1 0x0 DUP1 REVERT JUMPDEST POP PUSH2 0x12E PUSH2 0x129 CALLDATASIZE PUSH1 0x4 PUSH2 0x113B JUMP JUMPDEST PUSH2 0x366 JUMP JUMPDEST STOP JUMPDEST CALLVALUE DUP1 ISZERO PUSH2 0x13C JUMPI PUSH1 0x0 DUP1 REVERT JUMPDEST POP PUSH2 0x145 PUSH1 0x12 DUP2 JUMP JUMPDEST PUSH1 0x40 MLOAD SWAP1 DUP2 MSTORE PUSH1 0x20 ADD JUMPDEST PUSH1 0x40 MLOAD DUP1 SWAP2 SUB SWAP1 RETURN JUMPDEST CALLVALUE DUP1 ISZERO PUSH2 0x164 JUMPI PUSH1 0x0 DUP1 REVERT JUMPDEST POP PUSH2 0x145 PUSH1 0x4 SLOAD DUP2 JUMP JUMPDEST CALLVALUE DUP1 ISZERO PUSH2 0x17A JUMPI PUSH1 0x0 DUP1 REVERT JUMPDEST POP PUSH2 0x12E PUSH2 0x5BA JUMP JUMPDEST CALLVALUE DUP1 ISZERO PUSH2 0x18F JUMPI PUSH1 0x0 DUP1 REVERT JUMPDEST POP PUSH2 0x145 PUSH4 0x1E13380 DUP2 JUMP JUMPDEST PUSH2 0x12E PUSH2 0x721 JUMP JUMPDEST CALLVALUE DUP1 ISZERO PUSH2 0x1AF JUMPI PUSH1 0x0 DUP1 REVERT JUMPDEST POP PUSH2 0x1E9 PUSH2 0x1BE CALLDATASIZE PUSH1 0x4 PUSH2 0x113B JUMP JUMPDEST PUSH1 0x1 PUSH1 0x20 DUP2 SWAP1 MSTORE PUSH1 0x0 SWAP2 DUP3 MSTORE PUSH1 0x40 SWAP1 SWAP2 KECCAK256 DUP1 SLOAD SWAP2 DUP2 ADD SLOAD PUSH1 0x2 DUP3 ADD SLOAD PUSH1 0x3 SWAP1 SWAP3 ADD SLOAD SWAP1 SWAP2 SWAP1 PUSH1 0xFF AND DUP5 JUMP JUMPDEST PUSH1 0x40 DUP1 MLOAD SWAP5 DUP6 MSTORE PUSH1 0x20 DUP6 ADD SWAP4 SWAP1 SWAP4 MSTORE SWAP2 DUP4 ADD MSTORE ISZERO ISZERO PUSH1 0x60 DUP3 ADD MSTORE PUSH1 0x80 ADD PUSH2 0x14F JUMP JUMPDEST CALLVALUE DUP1 ISZERO PUSH2 0x217 JUMPI PUSH1 0x0 DUP1 REVERT JUMPDEST POP PUSH2 0x145 PUSH1 0x3 SLOAD DUP2 JUMP JUMPDEST CALLVALUE DUP1 ISZERO PUSH2 0x22D JUMPI PUSH1 0x0 DUP1 REVERT JUMPDEST POP PUSH2 0x145 PUSH2 0x23C CALLDATASIZE PUSH1 0x4 PUSH2 0x113B JUMP JUMPDEST PUSH2 0x888 JUMP JUMPDEST CALLVALUE DUP1 ISZERO PUSH2 0x24D JUMPI PUSH1 0x0 DUP1 REVERT JUMPDEST POP PUSH2 0x145 PUSH2 0x25C CALLDATASIZE PUSH1 0x4 PUSH2 0x113B JUMP JUMPDEST PUSH2 0x934 JUMP JUMPDEST CALLVALUE DUP1 ISZERO PUSH2 0x26D JUMPI PUSH1 0x0 DUP1 REVERT JUMPDEST POP PUSH2 0x145 PUSH2 0x27C CALLDATASIZE PUSH1 0x4 PUSH2 0x1156 JUMP JUMPDEST PUSH2 0x9A1 JUMP JUMPDEST CALLVALUE DUP1 ISZERO PUSH2 0x28D JUMPI PUSH1 0x0 DUP1 REVERT JUMPDEST POP PUSH2 0x145 PUSH1 0x3C DUP2 JUMP JUMPDEST CALLVALUE DUP1 ISZERO PUSH2 0x2A2 JUMPI PUSH1 0x0 DUP1 REVERT JUMPDEST POP PUSH1 0x2 SLOAD PUSH2 0x2B6 SWAP1 PUSH1 0x1 PUSH1 0x1 PUSH1 0xA0 SHL SUB AND DUP2 JUMP JUMPDEST PUSH1 0x40 MLOAD PUSH1 0x1 PUSH1 0x1 PUSH1 0xA0 SHL SUB SWAP1 SWAP2 AND DUP2 MSTORE PUSH1 0x20 ADD PUSH2 0x14F JUMP JUMPDEST CALLVALUE DUP1 ISZERO PUSH2 0x2DA JUMPI PUSH1 0x0 DUP1 REVERT JUMPDEST POP PUSH2 0x12E PUSH2 0x2E9 CALLDATASIZE PUSH1 0x4 PUSH2 0x1180 JUMP JUMPDEST PUSH2 0xA50 JUMP JUMPDEST CALLVALUE DUP1 ISZERO PUSH2 0x2FA JUMPI PUSH1 0x0 DUP1 REVERT JUMPDEST POP PUSH2 0x1E9 PUSH2 0x309 CALLDATASIZE PUSH1 0x4 PUSH2 0x113B JUMP JUMPDEST PUSH1 0x1 PUSH1 0x1 PUSH1 0xA0 SHL SUB AND PUSH1 0x0 SWAP1 DUP2 MSTORE PUSH1 0x1 PUSH1 0x20 DUP2 SWAP1 MSTORE PUSH1 0x40 SWAP1 SWAP2 KECCAK256 DUP1 SLOAD SWAP2 DUP2 ADD SLOAD PUSH1 0x2 DUP3 ADD SLOAD PUSH1 0x3 SWAP1 SWAP3 ADD SLOAD SWAP3 SWAP4 SWAP1 SWAP3 PUSH1 0xFF AND SWAP1 JUMP JUMPDEST CALLVALUE DUP1 ISZERO PUSH2 0x34A JUMPI PUSH1 0x0 DUP1 REVERT JUMPDEST POP PUSH2 0x145 PUSH2 0x359 CALLDATASIZE PUSH1 0x4 PUSH2 0x1199 JUMP JUMPDEST PUSH2 0xC58 JUMP JUMPDEST PUSH2 0x12E PUSH2 0xD0E JUMP JUMPDEST PUSH1 0x2 SLOAD PUSH1 0x1 PUSH1 0x1 PUSH1 0xA0 SHL SUB AND CALLER EQ PUSH2 0x3D1 JUMPI PUSH1 0x40 MLOAD PUSH3 0x461BCD PUSH1 0xE5 SHL DUP2 MSTORE PUSH1 0x20 PUSH1 0x4 DUP3 ADD MSTORE PUSH1 0x23 PUSH1 0x24 DUP3 ADD MSTORE PUSH32 0x4F6E6C79206C656E6465722063616E20706572666F726D207468697320616374 PUSH1 0x44 DUP3 ADD MSTORE PUSH3 0x34B7B7 PUSH1 0xE9 SHL PUSH1 0x64 DUP3 ADD MSTORE PUSH1 0x84 ADD JUMPDEST PUSH1 0x40 MLOAD DUP1 SWAP2 SUB SWAP1 REVERT JUMPDEST PUSH2 0x3D9 PUSH2 0xF83 JUMP JUMPDEST PUSH1 0x1 PUSH1 0x1 PUSH1 0xA0 SHL SUB DUP2 AND PUSH1 0x0 SWAP1 DUP2 MSTORE PUSH1 0x1 PUSH1 0x20 MSTORE PUSH1 0x40 SWAP1 KECCAK256 PUSH1 0x3 DUP2 ADD SLOAD PUSH1 0xFF AND PUSH2 0x436 JUMPI PUSH1 0x40 MLOAD PUSH3 0x461BCD PUSH1 0xE5 SHL DUP2 MSTORE PUSH1 0x20 PUSH1 0x4 DUP3 ADD MSTORE PUSH1 0xE PUSH1 0x24 DUP3 ADD MSTORE PUSH14 0x27379030B1BA34BB32903637B0B7 PUSH1 0x91 SHL PUSH1 0x44 DUP3 ADD MSTORE PUSH1 0x64 ADD PUSH2 0x3C8 JUMP JUMPDEST PUSH1 0x0 PUSH2 0x44F DUP3 PUSH1 0x2 ADD SLOAD TIMESTAMP PUSH2 0xFDC SWAP1 SWAP2 SWAP1 PUSH4 0xFFFFFFFF AND JUMP JUMPDEST SWAP1 POP PUSH1 0x0 PUSH2 0x461 DUP4 PUSH1 0x1 ADD SLOAD DUP4 PUSH2 0xC58 JUMP JUMPDEST SWAP1 POP PUSH1 0x0 PUSH2 0x47C DUP3 DUP6 PUSH1 0x1 ADD SLOAD PUSH2 0xFEF SWAP1 SWAP2 SWAP1 PUSH4 0xFFFFFFFF AND JUMP JUMPDEST SWAP1 POP PUSH2 0x4A2 PUSH1 0x64 PUSH2 0x49C PUSH1 0x4 SLOAD DUP8 PUSH1 0x0 ADD SLOAD PUSH2 0xFFB SWAP1 SWAP2 SWAP1 PUSH4 0xFFFFFFFF AND JUMP JUMPDEST SWAP1 PUSH2 0x1007 JUMP JUMPDEST DUP2 LT ISZERO PUSH2 0x4FB JUMPI PUSH1 0x40 MLOAD PUSH3 0x461BCD PUSH1 0xE5 SHL DUP2 MSTORE PUSH1 0x20 PUSH1 0x4 DUP3 ADD MSTORE PUSH1 0x21 PUSH1 0x24 DUP3 ADD MSTORE PUSH32 0x4C6F616E206E6F7420656C696769626C6520666F72206C69717569646174696F PUSH1 0x44 DUP3 ADD MSTORE PUSH1 0x37 PUSH1 0xF9 SHL PUSH1 0x64 DUP3 ADD MSTORE PUSH1 0x84 ADD PUSH2 0x3C8 JUMP JUMPDEST DUP4 SLOAD PUSH1 0x1 PUSH1 0x1 PUSH1 0xA0 SHL SUB DUP1 DUP8 AND PUSH1 0x0 SWAP1 DUP2 MSTORE PUSH1 0x1 PUSH1 0x20 DUP2 SWAP1 MSTORE PUSH1 0x40 DUP1 DUP4 KECCAK256 DUP4 DUP2 SSTORE SWAP2 DUP3 ADD DUP4 SWAP1 SSTORE PUSH1 0x2 DUP1 DUP4 ADD DUP5 SWAP1 SSTORE PUSH1 0x3 SWAP1 SWAP3 ADD DUP1 SLOAD PUSH1 0xFF NOT AND SWAP1 SSTORE SWAP1 SLOAD SWAP1 MLOAD SWAP3 AND SWAP2 DUP4 ISZERO PUSH2 0x8FC MUL SWAP2 DUP5 SWAP2 SWAP1 DUP2 DUP2 DUP2 DUP6 DUP9 DUP9 CALL SWAP4 POP POP POP POP ISZERO DUP1 ISZERO PUSH2 0x565 JUMPI RETURNDATASIZE PUSH1 0x0 DUP1 RETURNDATACOPY RETURNDATASIZE PUSH1 0x0 REVERT JUMPDEST POP PUSH1 0x40 DUP1 MLOAD PUSH1 0x1 PUSH1 0x1 PUSH1 0xA0 SHL SUB DUP9 AND DUP2 MSTORE PUSH1 0x20 DUP2 ADD DUP4 SWAP1 MSTORE PUSH32 0xA5EE7A2B0254FCE91DEED604506790ED7FA072D0B14CBA4859C3BC8955B9CAAC SWAP2 ADD PUSH1 0x40 MLOAD DUP1 SWAP2 SUB SWAP1 LOG1 POP POP POP POP POP PUSH2 0x5B7 PUSH1 0x1 PUSH1 0x0 SSTORE JUMP JUMPDEST POP JUMP JUMPDEST PUSH2 0x5C2 PUSH2 0xF83 JUMP JUMPDEST CALLER PUSH1 0x0 SWAP1 DUP2 MSTORE PUSH1 0x1 PUSH1 0x20 MSTORE PUSH1 0x40 SWAP1 KECCAK256 DUP1 SLOAD PUSH2 0x61F JUMPI PUSH1 0x40 MLOAD PUSH3 0x461BCD PUSH1 0xE5 SHL DUP2 MSTORE PUSH1 0x20 PUSH1 0x4 DUP3 ADD MSTORE PUSH1 0x19 PUSH1 0x24 DUP3 ADD MSTORE PUSH32 0x4E6F20636F6C6C61746572616C20746F20776974686472617700000000000000 PUSH1 0x44 DUP3 ADD MSTORE PUSH1 0x64 ADD PUSH2 0x3C8 JUMP JUMPDEST PUSH1 0x3 DUP2 ADD SLOAD PUSH1 0xFF AND ISZERO PUSH2 0x680 JUMPI PUSH1 0x40 MLOAD PUSH3 0x461BCD PUSH1 0xE5 SHL DUP2 MSTORE PUSH1 0x20 PUSH1 0x4 DUP3 ADD MSTORE PUSH1 0x24 DUP1 DUP3 ADD MSTORE PUSH32 0x43616E6E6F74207769746864726177207768696C65206C6F616E206973206163 PUSH1 0x44 DUP3 ADD MSTORE PUSH4 0x74697665 PUSH1 0xE0 SHL PUSH1 0x64 DUP3 ADD MSTORE PUSH1 0x84 ADD PUSH2 0x3C8 JUMP JUMPDEST DUP1 SLOAD CALLER PUSH1 0x0 DUP2 DUP2 MSTORE PUSH1 0x1 PUSH1 0x20 DUP2 SWAP1 MSTORE PUSH1 0x40 DUP1 DUP4 KECCAK256 DUP4 DUP2 SSTORE SWAP2 DUP3 ADD DUP4 SWAP1 SSTORE PUSH1 0x2 DUP3 ADD DUP4 SWAP1 SSTORE PUSH1 0x3 SWAP1 SWAP2 ADD DUP1 SLOAD PUSH1 0xFF NOT AND SWAP1 SSTORE MLOAD DUP4 ISZERO PUSH2 0x8FC MUL SWAP2 DUP5 SWAP2 SWAP1 DUP2 DUP2 DUP2 DUP6 DUP9 DUP9 CALL SWAP4 POP POP POP POP ISZERO DUP1 ISZERO PUSH2 0x6D9 JUMPI RETURNDATASIZE PUSH1 0x0 DUP1 RETURNDATACOPY RETURNDATASIZE PUSH1 0x0 REVERT JUMPDEST POP PUSH1 0x40 DUP1 MLOAD CALLER DUP2 MSTORE PUSH1 0x20 DUP2 ADD DUP4 SWAP1 MSTORE PUSH32 0xC30FCFBCAAC9E0DEFFA719714EAA82396FF506A0D0D0EEBE170830177288715D SWAP2 ADD PUSH1 0x40 MLOAD DUP1 SWAP2 SUB SWAP1 LOG1 POP POP PUSH2 0x71F PUSH1 0x1 PUSH1 0x0 SSTORE JUMP JUMPDEST JUMP JUMPDEST PUSH2 0x729 PUSH2 0xF83 JUMP JUMPDEST PUSH1 0x0 CALLVALUE GT PUSH2 0x785 JUMPI PUSH1 0x40 MLOAD PUSH3 0x461BCD PUSH1 0xE5 SHL DUP2 MSTORE PUSH1 0x20 PUSH1 0x4 DUP3 ADD MSTORE PUSH1 0x23 PUSH1 0x24 DUP3 ADD MSTORE PUSH32 0x4D757374206465706F73697420736F6D652045544820617320636F6C6C617465 PUSH1 0x44 DUP3 ADD MSTORE PUSH3 0x1C985B PUSH1 0xEA SHL PUSH1 0x64 DUP3 ADD MSTORE PUSH1 0x84 ADD PUSH2 0x3C8 JUMP JUMPDEST CALLER PUSH1 0x0 SWAP1 DUP2 MSTORE PUSH1 0x1 PUSH1 0x20 MSTORE PUSH1 0x40 SWAP1 KECCAK256 PUSH1 0x3 ADD SLOAD PUSH1 0xFF AND ISZERO PUSH2 0x7E8 JUMPI PUSH1 0x40 MLOAD PUSH3 0x461BCD PUSH1 0xE5 SHL DUP2 MSTORE PUSH1 0x20 PUSH1 0x4 DUP3 ADD MSTORE PUSH1 0x1A PUSH1 0x24 DUP3 ADD MSTORE PUSH32 0x416C72656164792068617320616E20616374697665206C6F616E000000000000 PUSH1 0x44 DUP3 ADD MSTORE PUSH1 0x64 ADD PUSH2 0x3C8 JUMP JUMPDEST CALLER PUSH1 0x0 DUP2 DUP2 MSTORE PUSH1 0x1 PUSH1 0x20 DUP2 DUP2 MSTORE PUSH1 0x40 DUP1 DUP5 KECCAK256 PUSH1 0x3 DUP2 ADD DUP1 SLOAD DUP4 MLOAD PUSH1 0x80 DUP2 ADD DUP6 MSTORE CALLVALUE DUP1 DUP3 MSTORE DUP2 DUP8 ADD DUP10 DUP2 MSTORE TIMESTAMP DUP4 DUP9 ADD SWAP1 DUP2 MSTORE PUSH1 0x60 DUP5 ADD DUP12 DUP2 MSTORE SWAP11 DUP13 SWAP1 MSTORE DUP10 DUP10 MSTORE SWAP3 MLOAD DUP7 SSTORE MLOAD SWAP8 DUP6 ADD SWAP8 SWAP1 SWAP8 SSTORE MLOAD PUSH1 0x2 SWAP1 SWAP4 ADD SWAP3 SWAP1 SWAP3 SSTORE SWAP5 MLOAD ISZERO ISZERO PUSH1 0xFF NOT SWAP1 SWAP2 AND OR SWAP1 SWAP4 SSTORE DUP3 MLOAD SWAP4 DUP5 MSTORE DUP4 ADD MSTORE PUSH32 0xD7243F6F8212D5188FD054141CF6EA89CFC0D91FACB8C3AFE2F88A1358480142 SWAP2 ADD PUSH1 0x40 MLOAD DUP1 SWAP2 SUB SWAP1 LOG1 PUSH2 0x71F PUSH1 0x1 PUSH1 0x0 SSTORE JUMP JUMPDEST PUSH1 0x1 PUSH1 0x1 PUSH1 0xA0 SHL SUB DUP2 AND PUSH1 0x0 SWAP1 DUP2 MSTORE PUSH1 0x1 PUSH1 0x20 MSTORE PUSH1 0x40 DUP2 KECCAK256 PUSH1 0x3 DUP2 ADD SLOAD PUSH1 0xFF AND PUSH2 0x8C4 JUMPI PUSH1 0x40 MLOAD PUSH3 0x461BCD PUSH1 0xE5 SHL DUP2 MSTORE PUSH1 0x4 ADD PUSH2 0x3C8 SWAP1 PUSH2 0x11BB JUMP JUMPDEST PUSH1 0x0 PUSH2 0x8DD DUP3 PUSH1 0x2 ADD SLOAD TIMESTAMP PUSH2 0xFDC SWAP1 SWAP2 SWAP1 PUSH4 0xFFFFFFFF AND JUMP JUMPDEST SWAP1 POP PUSH1 0x0 PUSH2 0x8EF DUP4 PUSH1 0x1 ADD SLOAD DUP4 PUSH2 0xC58 JUMP JUMPDEST SWAP1 POP PUSH1 0x0 PUSH2 0x90A DUP3 DUP6 PUSH1 0x1 ADD SLOAD PUSH2 0xFEF SWAP1 SWAP2 SWAP1 PUSH4 0xFFFFFFFF AND JUMP JUMPDEST SWAP1 POP PUSH1 0x0 PUSH2 0x91D DUP6 PUSH1 0x1 ADD SLOAD PUSH1 0x3C PUSH2 0xC58 JUMP JUMPDEST SWAP1 POP PUSH2 0x929 DUP3 DUP3 PUSH2 0xFEF JUMP JUMPDEST SWAP8 SWAP7 POP POP POP POP POP POP POP JUMP JUMPDEST PUSH1 0x1 PUSH1 0x1 PUSH1 0xA0 SHL SUB DUP2 AND PUSH1 0x0 SWAP1 DUP2 MSTORE PUSH1 0x1 PUSH1 0x20 MSTORE PUSH1 0x40 DUP2 KECCAK256 PUSH1 0x3 DUP2 ADD SLOAD PUSH1 0xFF AND PUSH2 0x970 JUMPI PUSH1 0x40 MLOAD PUSH3 0x461BCD PUSH1 0xE5 SHL DUP2 MSTORE PUSH1 0x4 ADD PUSH2 0x3C8 SWAP1 PUSH2 0x11BB JUMP JUMPDEST PUSH1 0x0 PUSH2 0x989 DUP3 PUSH1 0x2 ADD SLOAD TIMESTAMP PUSH2 0xFDC SWAP1 SWAP2 SWAP1 PUSH4 0xFFFFFFFF AND JUMP JUMPDEST SWAP1 POP PUSH2 0x999 DUP3 PUSH1 0x1 ADD SLOAD DUP3 PUSH2 0xC58 JUMP JUMPDEST SWAP5 SWAP4 POP POP POP POP JUMP JUMPDEST PUSH1 0x1 PUSH1 0x1 PUSH1 0xA0 SHL SUB DUP3 AND PUSH1 0x0 SWAP1 DUP2 MSTORE PUSH1 0x1 PUSH1 0x20 MSTORE PUSH1 0x40 DUP2 KECCAK256 PUSH1 0x3 DUP2 ADD SLOAD PUSH1 0xFF AND PUSH2 0x9DD JUMPI PUSH1 0x40 MLOAD PUSH3 0x461BCD PUSH1 0xE5 SHL DUP2 MSTORE PUSH1 0x4 ADD PUSH2 0x3C8 SWAP1 PUSH2 0x11BB JUMP JUMPDEST PUSH1 0x0 PUSH2 0x9F6 DUP3 PUSH1 0x2 ADD SLOAD DUP6 PUSH2 0xFDC SWAP1 SWAP2 SWAP1 PUSH4 0xFFFFFFFF AND JUMP JUMPDEST SWAP1 POP PUSH1 0x0 PUSH2 0xA08 DUP4 PUSH1 0x1 ADD SLOAD DUP4 PUSH2 0xC58 JUMP JUMPDEST SWAP1 POP PUSH1 0x0 PUSH2 0xA23 DUP3 DUP6 PUSH1 0x1 ADD SLOAD PUSH2 0xFEF SWAP1 SWAP2 SWAP1 PUSH4 0xFFFFFFFF AND JUMP JUMPDEST SWAP1 POP PUSH1 0x0 PUSH2 0xA36 DUP6 PUSH1 0x1 ADD SLOAD PUSH1 0x3C PUSH2 0xC58 JUMP JUMPDEST SWAP1 POP PUSH2 0xA42 DUP3 DUP3 PUSH2 0xFEF JUMP JUMPDEST SWAP6 POP POP POP POP POP POP JUMPDEST SWAP3 SWAP2 POP POP JUMP JUMPDEST PUSH2 0xA58 PUSH2 0xF83 JUMP JUMPDEST CALLER PUSH1 0x0 SWAP1 DUP2 MSTORE PUSH1 0x1 PUSH1 0x20 MSTORE PUSH1 0x40 SWAP1 KECCAK256 DUP1 SLOAD PUSH2 0xAB5 JUMPI PUSH1 0x40 MLOAD PUSH3 0x461BCD PUSH1 0xE5 SHL DUP2 MSTORE PUSH1 0x20 PUSH1 0x4 DUP3 ADD MSTORE PUSH1 0x17 PUSH1 0x24 DUP3 ADD MSTORE PUSH32 0x4E6F20636F6C6C61746572616C206465706F7369746564000000000000000000 PUSH1 0x44 DUP3 ADD MSTORE PUSH1 0x64 ADD PUSH2 0x3C8 JUMP JUMPDEST PUSH1 0x3 DUP2 ADD SLOAD PUSH1 0xFF AND ISZERO PUSH2 0xB00 JUMPI PUSH1 0x40 MLOAD PUSH3 0x461BCD PUSH1 0xE5 SHL DUP2 MSTORE PUSH1 0x20 PUSH1 0x4 DUP3 ADD MSTORE PUSH1 0x13 PUSH1 0x24 DUP3 ADD MSTORE PUSH19 0x4C6F616E20616C726561647920616374697665 PUSH1 0x68 SHL PUSH1 0x44 DUP3 ADD MSTORE PUSH1 0x64 ADD PUSH2 0x3C8 JUMP JUMPDEST PUSH1 0x4 SLOAD DUP2 SLOAD PUSH2 0xB15 SWAP2 PUSH1 0x64 SWAP2 PUSH2 0x49C SWAP2 PUSH2 0xFFB JUMP JUMPDEST DUP3 GT ISZERO PUSH2 0xB79 JUMPI PUSH1 0x40 MLOAD PUSH3 0x461BCD PUSH1 0xE5 SHL DUP2 MSTORE PUSH1 0x20 PUSH1 0x4 DUP3 ADD MSTORE PUSH1 0x2C PUSH1 0x24 DUP3 ADD MSTORE PUSH32 0x43616E6E6F7420626F72726F77206D6F7265207468616E20636F6C6C61746572 PUSH1 0x44 DUP3 ADD MSTORE PUSH12 0x185B081D1A1C995CDA1BDB19 PUSH1 0xA2 SHL PUSH1 0x64 DUP3 ADD MSTORE PUSH1 0x84 ADD PUSH2 0x3C8 JUMP JUMPDEST DUP2 SELFBALANCE LT ISZERO PUSH2 0xBC9 JUMPI PUSH1 0x40 MLOAD PUSH3 0x461BCD PUSH1 0xE5 SHL DUP2 MSTORE PUSH1 0x20 PUSH1 0x4 DUP3 ADD MSTORE PUSH1 0x1C PUSH1 0x24 DUP3 ADD MSTORE PUSH32 0x4E6F7420656E6F7567682066756E647320696E20636F6E747261637400000000 PUSH1 0x44 DUP3 ADD MSTORE PUSH1 0x64 ADD PUSH2 0x3C8 JUMP JUMPDEST PUSH1 0x1 DUP1 DUP3 ADD DUP4 SWAP1 SSTORE TIMESTAMP PUSH1 0x2 DUP4 ADD SSTORE PUSH1 0x3 DUP3 ADD DUP1 SLOAD PUSH1 0xFF NOT AND SWAP1 SWAP2 OR SWAP1 SSTORE PUSH1 0x40 MLOAD CALLER SWAP1 DUP4 ISZERO PUSH2 0x8FC MUL SWAP1 DUP5 SWAP1 PUSH1 0x0 DUP2 DUP2 DUP2 DUP6 DUP9 DUP9 CALL SWAP4 POP POP POP POP ISZERO DUP1 ISZERO PUSH2 0xC13 JUMPI RETURNDATASIZE PUSH1 0x0 DUP1 RETURNDATACOPY RETURNDATASIZE PUSH1 0x0 REVERT JUMPDEST POP PUSH1 0x40 DUP1 MLOAD CALLER DUP2 MSTORE PUSH1 0x20 DUP2 ADD DUP5 SWAP1 MSTORE PUSH32 0xD5C776EAB9418D89C040FFEE59F2310D225F5FF682191BCEE59B0413A7FD4835 SWAP2 ADD PUSH1 0x40 MLOAD DUP1 SWAP2 SUB SWAP1 LOG1 POP PUSH2 0x5B7 PUSH1 0x1 PUSH1 0x0 SSTORE JUMP JUMPDEST PUSH1 0x0 DUP2 ISZERO DUP1 PUSH2 0xC65 JUMPI POP DUP3 ISZERO JUMPDEST ISZERO PUSH2 0xC72 JUMPI POP PUSH1 0x0 PUSH2 0xA4A JUMP JUMPDEST PUSH1 0x0 PUSH2 0xC92 PUSH4 0x1E13380 PUSH2 0x49C PUSH2 0xC8B PUSH1 0x12 PUSH1 0xA PUSH2 0x12E6 JUMP JUMPDEST DUP7 SWAP1 PUSH2 0xFFB JUMP JUMPDEST SWAP1 POP PUSH1 0x0 PUSH2 0xCB4 PUSH2 0x2710 PUSH2 0x49C PUSH2 0xCAB PUSH1 0x12 PUSH1 0xA PUSH2 0x12E6 JUMP JUMPDEST PUSH1 0x3 SLOAD SWAP1 PUSH2 0xFFB JUMP JUMPDEST SWAP1 POP PUSH1 0x0 PUSH2 0xCD1 PUSH2 0xCC7 PUSH1 0x12 PUSH1 0xA PUSH2 0x12E6 JUMP JUMPDEST PUSH2 0x49C DUP9 DUP6 PUSH2 0xFFB JUMP JUMPDEST SWAP1 POP PUSH1 0x0 PUSH2 0xCEE PUSH2 0xCE4 PUSH1 0x12 PUSH1 0xA PUSH2 0x12E6 JUMP JUMPDEST PUSH2 0x49C DUP5 DUP8 PUSH2 0xFFB JUMP JUMPDEST SWAP1 POP DUP1 ISZERO PUSH2 0xD04 JUMPI PUSH2 0xD01 DUP2 PUSH1 0x1 PUSH2 0xFEF JUMP JUMPDEST SWAP1 POP JUMPDEST SWAP7 SWAP6 POP POP POP POP POP POP JUMP JUMPDEST PUSH2 0xD16 PUSH2 0xF83 JUMP JUMPDEST CALLER PUSH1 0x0 SWAP1 DUP2 MSTORE PUSH1 0x1 PUSH1 0x20 MSTORE PUSH1 0x40 SWAP1 KECCAK256 PUSH1 0x3 DUP2 ADD SLOAD PUSH1 0xFF AND PUSH2 0xD87 JUMPI PUSH1 0x40 MLOAD PUSH3 0x461BCD PUSH1 0xE5 SHL DUP2 MSTORE PUSH1 0x20 PUSH1 0x4 DUP3 ADD MSTORE PUSH1 0x25 PUSH1 0x24 DUP3 ADD MSTORE PUSH32 0x4E6F20616374697665206C6F616E20666F756E6420666F722074686973206164 PUSH1 0x44 DUP3 ADD MSTORE PUSH5 0x6472657373 PUSH1 0xD8 SHL PUSH1 0x64 DUP3 ADD MSTORE PUSH1 0x84 ADD PUSH2 0x3C8 JUMP JUMPDEST PUSH1 0x0 DUP2 PUSH1 0x1 ADD SLOAD GT PUSH2 0xDD1 JUMPI PUSH1 0x40 MLOAD PUSH3 0x461BCD PUSH1 0xE5 SHL DUP2 MSTORE PUSH1 0x20 PUSH1 0x4 DUP3 ADD MSTORE PUSH1 0x13 PUSH1 0x24 DUP3 ADD MSTORE PUSH19 0x125B9D985B1A59081B1BD85B88185B5BDD5B9D PUSH1 0x6A SHL PUSH1 0x44 DUP3 ADD MSTORE PUSH1 0x64 ADD PUSH2 0x3C8 JUMP JUMPDEST PUSH1 0x0 PUSH2 0xDEA DUP3 PUSH1 0x2 ADD SLOAD TIMESTAMP PUSH2 0xFDC SWAP1 SWAP2 SWAP1 PUSH4 0xFFFFFFFF AND JUMP JUMPDEST SWAP1 POP PUSH1 0x0 PUSH2 0xDFC DUP4 PUSH1 0x1 ADD SLOAD DUP4 PUSH2 0xC58 JUMP JUMPDEST SWAP1 POP PUSH1 0x0 PUSH2 0xE17 DUP3 DUP6 PUSH1 0x1 ADD SLOAD PUSH2 0xFEF SWAP1 SWAP2 SWAP1 PUSH4 0xFFFFFFFF AND JUMP JUMPDEST SWAP1 POP DUP1 CALLVALUE LT ISZERO PUSH2 0xE26 DUP3 PUSH2 0x1013 JUMP JUMPDEST PUSH2 0xE2F CALLVALUE PUSH2 0x1013 JUMP JUMPDEST PUSH1 0x40 MLOAD PUSH1 0x20 ADD PUSH2 0xE40 SWAP3 SWAP2 SWAP1 PUSH2 0x1316 JUMP JUMPDEST PUSH1 0x40 MLOAD PUSH1 0x20 DUP2 DUP4 SUB SUB DUP2 MSTORE SWAP1 PUSH1 0x40 MSTORE SWAP1 PUSH2 0xE6D JUMPI PUSH1 0x40 MLOAD PUSH3 0x461BCD PUSH1 0xE5 SHL DUP2 MSTORE PUSH1 0x4 ADD PUSH2 0x3C8 SWAP2 SWAP1 PUSH2 0x13A9 JUMP JUMPDEST POP PUSH1 0x0 PUSH2 0xE7A CALLVALUE DUP4 PUSH2 0xFDC JUMP JUMPDEST DUP6 SLOAD CALLER PUSH1 0x0 SWAP1 DUP2 MSTORE PUSH1 0x1 PUSH1 0x20 DUP2 SWAP1 MSTORE PUSH1 0x40 DUP1 DUP4 KECCAK256 DUP4 DUP2 SSTORE SWAP2 DUP3 ADD DUP4 SWAP1 SSTORE PUSH1 0x2 DUP1 DUP4 ADD DUP5 SWAP1 SSTORE PUSH1 0x3 SWAP1 SWAP3 ADD DUP1 SLOAD PUSH1 0xFF NOT AND SWAP1 SSTORE SWAP1 SLOAD SWAP1 MLOAD SWAP4 SWAP5 POP SWAP2 SWAP3 PUSH1 0x1 PUSH1 0x1 PUSH1 0xA0 SHL SUB SWAP1 SWAP3 AND SWAP2 PUSH2 0x8FC DUP7 ISZERO MUL SWAP2 DUP7 SWAP2 SWAP1 DUP2 DUP2 DUP2 DUP6 DUP9 DUP9 CALL SWAP4 POP POP POP POP ISZERO DUP1 ISZERO PUSH2 0xEE8 JUMPI RETURNDATASIZE PUSH1 0x0 DUP1 RETURNDATACOPY RETURNDATASIZE PUSH1 0x0 REVERT JUMPDEST POP PUSH1 0x0 PUSH2 0xEF5 DUP3 DUP5 PUSH2 0xFEF JUMP JUMPDEST SWAP1 POP DUP1 ISZERO PUSH2 0xF2C JUMPI PUSH1 0x40 MLOAD CALLER SWAP1 DUP3 ISZERO PUSH2 0x8FC MUL SWAP1 DUP4 SWAP1 PUSH1 0x0 DUP2 DUP2 DUP2 DUP6 DUP9 DUP9 CALL SWAP4 POP POP POP POP ISZERO DUP1 ISZERO PUSH2 0xF2A JUMPI RETURNDATASIZE PUSH1 0x0 DUP1 RETURNDATACOPY RETURNDATASIZE PUSH1 0x0 REVERT JUMPDEST POP JUMPDEST PUSH1 0x1 DUP8 ADD SLOAD PUSH1 0x40 DUP1 MLOAD CALLER DUP2 MSTORE PUSH1 0x20 DUP2 ADD SWAP3 SWAP1 SWAP3 MSTORE DUP2 ADD DUP7 SWAP1 MSTORE PUSH32 0xC7CE0A35F17B490DE2A317E7FECB2CAE86B1ABFFB03800B2F492823521382698 SWAP1 PUSH1 0x60 ADD PUSH1 0x40 MLOAD DUP1 SWAP2 SUB SWAP1 LOG1 POP POP POP POP POP POP POP PUSH2 0x71F PUSH1 0x1 PUSH1 0x0 SSTORE JUMP JUMPDEST PUSH1 0x2 PUSH1 0x0 SLOAD SUB PUSH2 0xFD5 JUMPI PUSH1 0x40 MLOAD PUSH3 0x461BCD PUSH1 0xE5 SHL DUP2 MSTORE PUSH1 0x20 PUSH1 0x4 DUP3 ADD MSTORE PUSH1 0x1F PUSH1 0x24 DUP3 ADD MSTORE PUSH32 0x5265656E7472616E637947756172643A207265656E7472616E742063616C6C00 PUSH1 0x44 DUP3 ADD MSTORE PUSH1 0x64 ADD PUSH2 0x3C8 JUMP JUMPDEST PUSH1 0x2 PUSH1 0x0 SSTORE JUMP JUMPDEST PUSH1 0x0 PUSH2 0xFE8 DUP3 DUP5 PUSH2 0x13DC JUMP JUMPDEST SWAP4 SWAP3 POP POP POP JUMP JUMPDEST PUSH1 0x0 PUSH2 0xFE8 DUP3 DUP5 PUSH2 0x13EF JUMP JUMPDEST PUSH1 0x0 PUSH2 0xFE8 DUP3 DUP5 PUSH2 0x1402 JUMP JUMPDEST PUSH1 0x0 PUSH2 0xFE8 DUP3 DUP5 PUSH2 0x142F JUMP JUMPDEST PUSH1 0x60 DUP2 PUSH1 0x0 SUB PUSH2 0x103A JUMPI POP POP PUSH1 0x40 DUP1 MLOAD DUP1 DUP3 ADD SWAP1 SWAP2 MSTORE PUSH1 0x1 DUP2 MSTORE PUSH1 0x3 PUSH1 0xFC SHL PUSH1 0x20 DUP3 ADD MSTORE SWAP1 JUMP JUMPDEST DUP2 PUSH1 0x0 JUMPDEST DUP2 ISZERO PUSH2 0x1064 JUMPI DUP1 PUSH2 0x104E DUP2 PUSH2 0x1443 JUMP JUMPDEST SWAP2 POP PUSH2 0x105D SWAP1 POP PUSH1 0xA DUP4 PUSH2 0x142F JUMP JUMPDEST SWAP2 POP PUSH2 0x103E JUMP JUMPDEST PUSH1 0x0 DUP2 PUSH8 0xFFFFFFFFFFFFFFFF DUP2 GT ISZERO PUSH2 0x107F JUMPI PUSH2 0x107F PUSH2 0x145C JUMP JUMPDEST PUSH1 0x40 MLOAD SWAP1 DUP1 DUP3 MSTORE DUP1 PUSH1 0x1F ADD PUSH1 0x1F NOT AND PUSH1 0x20 ADD DUP3 ADD PUSH1 0x40 MSTORE DUP1 ISZERO PUSH2 0x10A9 JUMPI PUSH1 0x20 DUP3 ADD DUP2 DUP1 CALLDATASIZE DUP4 CALLDATACOPY ADD SWAP1 POP JUMPDEST POP DUP6 SWAP4 POP SWAP1 POP DUP2 JUMPDEST DUP4 ISZERO PUSH2 0x1116 JUMPI PUSH2 0x10C2 PUSH1 0xA DUP6 PUSH2 0x1472 JUMP JUMPDEST PUSH2 0x10CD SWAP1 PUSH1 0x30 PUSH2 0x13EF JUMP JUMPDEST PUSH1 0xF8 SHL DUP3 PUSH2 0x10DA DUP4 PUSH2 0x1486 JUMP JUMPDEST SWAP3 POP DUP3 DUP2 MLOAD DUP2 LT PUSH2 0x10ED JUMPI PUSH2 0x10ED PUSH2 0x149D JUMP JUMPDEST PUSH1 0x20 ADD ADD SWAP1 PUSH1 0x1 PUSH1 0x1 PUSH1 0xF8 SHL SUB NOT AND SWAP1 DUP2 PUSH1 0x0 BYTE SWAP1 MSTORE8 POP PUSH2 0x110F PUSH1 0xA DUP6 PUSH2 0x142F JUMP JUMPDEST SWAP4 POP PUSH2 0x10B1 JUMP JUMPDEST POP SWAP5 SWAP4 POP POP POP POP JUMP JUMPDEST DUP1 CALLDATALOAD PUSH1 0x1 PUSH1 0x1 PUSH1 0xA0 SHL SUB DUP2 AND DUP2 EQ PUSH2 0x1136 JUMPI PUSH1 0x0 DUP1 REVERT JUMPDEST SWAP2 SWAP1 POP JUMP JUMPDEST PUSH1 0x0 PUSH1 0x20 DUP3 DUP5 SUB SLT ISZERO PUSH2 0x114D JUMPI PUSH1 0x0 DUP1 REVERT JUMPDEST PUSH2 0xFE8 DUP3 PUSH2 0x111F JUMP JUMPDEST PUSH1 0x0 DUP1 PUSH1 0x40 DUP4 DUP6 SUB SLT ISZERO PUSH2 0x1169 JUMPI PUSH1 0x0 DUP1 REVERT JUMPDEST PUSH2 0x1172 DUP4 PUSH2 0x111F JUMP JUMPDEST SWAP5 PUSH1 0x20 SWAP4 SWAP1 SWAP4 ADD CALLDATALOAD SWAP4 POP POP POP JUMP JUMPDEST PUSH1 0x0 PUSH1 0x20 DUP3 DUP5 SUB SLT ISZERO PUSH2 0x1192 JUMPI PUSH1 0x0 DUP1 REVERT JUMPDEST POP CALLDATALOAD SWAP2 SWAP1 POP JUMP JUMPDEST PUSH1 0x0 DUP1 PUSH1 0x40 DUP4 DUP6 SUB SLT ISZERO PUSH2 0x11AC JUMPI PUSH1 0x0 DUP1 REVERT JUMPDEST POP POP DUP1 CALLDATALOAD SWAP3 PUSH1 0x20 SWAP1 SWAP2 ADD CALLDATALOAD SWAP2 POP JUMP JUMPDEST PUSH1 0x20 DUP1 DUP3 MSTORE PUSH1 0x14 SWAP1 DUP3 ADD MSTORE PUSH20 0x139BC81858DD1A5D99481B1BD85B88199BDD5B99 PUSH1 0x62 SHL PUSH1 0x40 DUP3 ADD MSTORE PUSH1 0x60 ADD SWAP1 JUMP JUMPDEST PUSH4 0x4E487B71 PUSH1 0xE0 SHL PUSH1 0x0 MSTORE PUSH1 0x11 PUSH1 0x4 MSTORE PUSH1 0x24 PUSH1 0x0 REVERT JUMPDEST PUSH1 0x1 DUP2 JUMPDEST PUSH1 0x1 DUP5 GT ISZERO PUSH2 0x123A JUMPI DUP1 DUP6 DIV DUP2 GT ISZERO PUSH2 0x121E JUMPI PUSH2 0x121E PUSH2 0x11E9 JUMP JUMPDEST PUSH1 0x1 DUP5 AND ISZERO PUSH2 0x122C JUMPI SWAP1 DUP2 MUL SWAP1 JUMPDEST PUSH1 0x1 SWAP4 SWAP1 SWAP4 SHR SWAP3 DUP1 MUL PUSH2 0x1203 JUMP JUMPDEST SWAP4 POP SWAP4 SWAP2 POP POP JUMP JUMPDEST PUSH1 0x0 DUP3 PUSH2 0x1251 JUMPI POP PUSH1 0x1 PUSH2 0xA4A JUMP JUMPDEST DUP2 PUSH2 0x125E JUMPI POP PUSH1 0x0 PUSH2 0xA4A JUMP JUMPDEST DUP2 PUSH1 0x1 DUP2 EQ PUSH2 0x1274 JUMPI PUSH1 0x2 DUP2 EQ PUSH2 0x127E JUMPI PUSH2 0x129A JUMP JUMPDEST PUSH1 0x1 SWAP2 POP POP PUSH2 0xA4A JUMP JUMPDEST PUSH1 0xFF DUP5 GT ISZERO PUSH2 0x128F JUMPI PUSH2 0x128F PUSH2 0x11E9 JUMP JUMPDEST POP POP PUSH1 0x1 DUP3 SHL PUSH2 0xA4A JUMP JUMPDEST POP PUSH1 0x20 DUP4 LT PUSH2 0x133 DUP4 LT AND PUSH1 0x4E DUP5 LT PUSH1 0xB DUP5 LT AND OR ISZERO PUSH2 0x12BD JUMPI POP DUP2 DUP2 EXP PUSH2 0xA4A JUMP JUMPDEST PUSH2 0x12CA PUSH1 0x0 NOT DUP5 DUP5 PUSH2 0x11FF JUMP JUMPDEST DUP1 PUSH1 0x0 NOT DIV DUP3 GT ISZERO PUSH2 0x12DE JUMPI PUSH2 0x12DE PUSH2 0x11E9 JUMP JUMPDEST MUL SWAP4 SWAP3 POP POP POP JUMP JUMPDEST PUSH1 0x0 PUSH2 0xFE8 DUP4 DUP4 PUSH2 0x1242 JUMP JUMPDEST PUSH1 0x0 JUMPDEST DUP4 DUP2 LT ISZERO PUSH2 0x130D JUMPI DUP2 DUP2 ADD MLOAD DUP4 DUP3 ADD MSTORE PUSH1 0x20 ADD PUSH2 0x12F5 JUMP JUMPDEST POP POP PUSH1 0x0 SWAP2 ADD MSTORE JUMP JUMPDEST PUSH32 0x496E73756666696369656E742072657061796D656E7420616D6F756E742E2052 DUP2 MSTORE PUSH9 0x32B8BAB4B932B21D1 PUSH1 0xBD SHL PUSH1 0x20 DUP3 ADD MSTORE PUSH1 0x0 DUP4 MLOAD PUSH2 0x1360 DUP2 PUSH1 0x29 DUP6 ADD PUSH1 0x20 DUP9 ADD PUSH2 0x12F2 JUMP JUMPDEST PUSH12 0x103BB2B4961029B2B73A1D1 PUSH1 0xA5 SHL PUSH1 0x29 SWAP2 DUP5 ADD SWAP2 DUP3 ADD MSTORE DUP4 MLOAD PUSH2 0x138C DUP2 PUSH1 0x35 DUP5 ADD PUSH1 0x20 DUP9 ADD PUSH2 0x12F2 JUMP JUMPDEST PUSH4 0x20776569 PUSH1 0xE0 SHL PUSH1 0x35 SWAP3 SWAP1 SWAP2 ADD SWAP2 DUP3 ADD MSTORE PUSH1 0x39 ADD SWAP5 SWAP4 POP POP POP POP JUMP JUMPDEST PUSH1 0x20 DUP2 MSTORE PUSH1 0x0 DUP3 MLOAD DUP1 PUSH1 0x20 DUP5 ADD MSTORE PUSH2 0x13C8 DUP2 PUSH1 0x40 DUP6 ADD PUSH1 0x20 DUP8 ADD PUSH2 0x12F2 JUMP JUMPDEST PUSH1 0x1F ADD PUSH1 0x1F NOT AND SWAP2 SWAP1 SWAP2 ADD PUSH1 0x40 ADD SWAP3 SWAP2 POP POP JUMP JUMPDEST DUP2 DUP2 SUB DUP2 DUP2 GT ISZERO PUSH2 0xA4A JUMPI PUSH2 0xA4A PUSH2 0x11E9 JUMP JUMPDEST DUP1 DUP3 ADD DUP1 DUP3 GT ISZERO PUSH2 0xA4A JUMPI PUSH2 0xA4A PUSH2 0x11E9 JUMP JUMPDEST DUP1 DUP3 MUL DUP2 ISZERO DUP3 DUP3 DIV DUP5 EQ OR PUSH2 0xA4A JUMPI PUSH2 0xA4A PUSH2 0x11E9 JUMP JUMPDEST PUSH4 0x4E487B71 PUSH1 0xE0 SHL PUSH1 0x0 MSTORE PUSH1 0x12 PUSH1 0x4 MSTORE PUSH1 0x24 PUSH1 0x0 REVERT JUMPDEST PUSH1 0x0 DUP3 PUSH2 0x143E JUMPI PUSH2 0x143E PUSH2 0x1419 JUMP JUMPDEST POP DIV SWAP1 JUMP JUMPDEST PUSH1 0x0 PUSH1 0x1 DUP3 ADD PUSH2 0x1455 JUMPI PUSH2 0x1455 PUSH2 0x11E9 JUMP JUMPDEST POP PUSH1 0x1 ADD SWAP1 JUMP JUMPDEST PUSH4 0x4E487B71 PUSH1 0xE0 SHL PUSH1 0x0 MSTORE PUSH1 0x41 PUSH1 0x4 MSTORE PUSH1 0x24 PUSH1 0x0 REVERT JUMPDEST PUSH1 0x0 DUP3 PUSH2 0x1481 JUMPI PUSH2 0x1481 PUSH2 0x1419 JUMP JUMPDEST POP MOD SWAP1 JUMP JUMPDEST PUSH1 0x0 DUP2 PUSH2 0x1495 JUMPI PUSH2 0x1495 PUSH2 0x11E9 JUMP JUMPDEST POP PUSH1 0x0 NOT ADD SWAP1 JUMP JUMPDEST PUSH4 0x4E487B71 PUSH1 0xE0 SHL PUSH1 0x0 MSTORE PUSH1 0x32 PUSH1 0x4 MSTORE PUSH1 0x24 PUSH1 0x0 REVERT INVALID LOG2 PUSH5 0x6970667358 0x22 SLT KECCAK256 CREATE2 0x29 DUP8 SDIV PUSH30 0x7661FE57FA2F6D033681B5642F07849EEE161A22A6089B199E10FE64736F PUSH13 0x634300081C0033000000000000 "},"methodIdentifiers":{"BUFFER_TIME()":"bc7cf6e5","INTEREST_DECIMALS()":"3a5333bb","SECONDS_IN_YEAR()":"5dcc9391","borrow(uint256)":"c5ebeaec","calculateInterest(uint256,uint256)":"efdd7c07","depositCollateral()":"6f758140","getCurrentInterest(address)":"a0a59055","getLoanDetails(address)":"e8a7da8e","getRequiredRepaymentAmount(address)":"9aa9e849","getRequiredRepaymentAmountWithTimestamp(address,uint256)":"ac64f526","interestRate()":"7c3a00fd","lender()":"bcead63e","liquidate(address)":"2f865568","liquidationThreshold()":"4031234c","loans(address)":"73b4086b","repayLoan()":"f966ade7","withdrawCollateral()":"59c153be"}}}}}