{"contracts/LendingContract.sol":{"LendingContract":{"abi":[{"inputs":[{"internalType":"uint256","name":"_interestRate","type":"uint256"},{"internalType":"uint256","name":"_liquidationThreshold","type":"uint256"}],"stateMutability":"nonpayable","type":"constructor"},{"anonymous":false,"inputs":[{"indexed":false,"internalType":"address","name":"borrower","type":"address"},{"indexed":false,"internalType":"uint256","name":"amount","type":"uint256"}],"name":"CollateralDeposited","type":"event"},{"anonymous":false,"inputs":[{"indexed":false,"internalType":"address","name":"borrower","type":"address"},{"indexed":false,"internalType":"uint256","name":"collateralAmount","type":"uint256"}],"name":"Liquidated","type":"event"},{"anonymous":false,"inputs":[{"indexed":false,"internalType":"address","name":"borrower","type":"address"},{"indexed":false,"internalType":"uint256","name":"amount","type":"uint256"},{"indexed":false,"internalType":"uint256","name":"interest","type":"uint256"}],"name":"LoanRepaid","type":"event"},{"anonymous":false,"inputs":[{"indexed":false,"internalType":"address","name":"borrower","type":"address"},{"indexed":false,"internalType":"uint256","name":"amount","type":"uint256"}],"name":"LoanTaken","type":"event"},{"inputs":[],"name":"SECONDS_IN_YEAR","outputs":[{"internalType":"uint256","name":"","type":"uint256"}],"stateMutability":"view","type":"function"},{"inputs":[{"internalType":"uint256","name":"amount","type":"uint256"}],"name":"borrow","outputs":[],"stateMutability":"nonpayable","type":"function"},{"inputs":[{"internalType":"uint256","name":"principal","type":"uint256"},{"internalType":"uint256","name":"timeElapsed","type":"uint256"}],"name":"calculateInterest","outputs":[{"internalType":"uint256","name":"","type":"uint256"}],"stateMutability":"view","type":"function"},{"inputs":[],"name":"depositCollateral","outputs":[],"stateMutability":"payable","type":"function"},{"inputs":[{"internalType":"address","name":"borrower","type":"address"}],"name":"getLoanDetails","outputs":[{"internalType":"uint256","name":"collateralAmount","type":"uint256"},{"internalType":"uint256","name":"loanAmount","type":"uint256"},{"internalType":"uint256","name":"timestamp","type":"uint256"},{"internalType":"bool","name":"active","type":"bool"}],"stateMutability":"view","type":"function"},{"inputs":[],"name":"interestRate","outputs":[{"internalType":"uint256","name":"","type":"uint256"}],"stateMutability":"view","type":"function"},{"inputs":[],"name":"lender","outputs":[{"internalType":"address","name":"","type":"address"}],"stateMutability":"view","type":"function"},{"inputs":[{"internalType":"address","name":"borrower","type":"address"}],"name":"liquidate","outputs":[],"stateMutability":"nonpayable","type":"function"},{"inputs":[],"name":"liquidationThreshold","outputs":[{"internalType":"uint256","name":"","type":"uint256"}],"stateMutability":"view","type":"function"},{"inputs":[{"internalType":"address","name":"","type":"address"}],"name":"loans","outputs":[{"internalType":"uint256","name":"collateralAmount","type":"uint256"},{"internalType":"uint256","name":"loanAmount","type":"uint256"},{"internalType":"uint256","name":"timestamp","type":"uint256"},{"internalType":"bool","name":"active","type":"bool"}],"stateMutability":"view","type":"function"},{"inputs":[],"name":"repayLoan","outputs":[],"stateMutability":"payable","type":"function"},{"stateMutability":"payable","type":"receive"}],"evm":{"bytecode":{"linkReferences":{},"object":"6080604052348015600f57600080fd5b50604051610cb9380380610cb9833981016040819052602c916050565b6001600055600280546001600160a01b031916331790556003919091556004556073565b60008060408385031215606257600080fd5b505080516020909101519092909150565b610c37806100826000396000f3fe6080604052600436106100a05760003560e01c80637c3a00fd116100645780637c3a00fd1461017f578063bcead63e14610195578063c5ebeaec146101cd578063e8a7da8e146101ed578063efdd7c071461023d578063f966ade71461025d57600080fd5b80632f865568146100ac5780634031234c146100ce5780635dcc9391146100f75780636f7581401461010f57806373b4086b1461011757600080fd5b366100a757005b600080fd5b3480156100b857600080fd5b506100cc6100c7366004610b21565b610265565b005b3480156100da57600080fd5b506100e460045481565b6040519081526020015b60405180910390f35b34801561010357600080fd5b506100e46301e1338081565b6100cc6104b9565b34801561012357600080fd5b5061015d610132366004610b21565b6001602081905260009182526040909120805491810154600282015460039092015490919060ff1684565b60408051948552602085019390935291830152151560608201526080016100ee565b34801561018b57600080fd5b506100e460035481565b3480156101a157600080fd5b506002546101b5906001600160a01b031681565b6040516001600160a01b0390911681526020016100ee565b3480156101d957600080fd5b506100cc6101e8366004610b51565b61061d565b3480156101f957600080fd5b5061015d610208366004610b21565b6001600160a01b0316600090815260016020819052604090912080549181015460028201546003909201549293909260ff1690565b34801561024957600080fd5b506100e4610258366004610b6a565b610825565b6100cc610861565b6002546001600160a01b031633146102d05760405162461bcd60e51b815260206004820152602360248201527f4f6e6c79206c656e6465722063616e20706572666f726d20746869732061637460448201526234b7b760e91b60648201526084015b60405180910390fd5b6102d8610a91565b6001600160a01b0381166000908152600160205260409020600381015460ff166103355760405162461bcd60e51b815260206004820152600e60248201526d27379030b1ba34bb32903637b0b760911b60448201526064016102c7565b600061034e826002015442610aea90919063ffffffff16565b90506000610360836001015483610825565b9050600061037b828560010154610af690919063ffffffff16565b90506103a1606461039b6004548760000154610b0290919063ffffffff16565b90610b0e565b8110156103fa5760405162461bcd60e51b815260206004820152602160248201527f4c6f616e206e6f7420656c696769626c6520666f72206c69717569646174696f6044820152603760f91b60648201526084016102c7565b83546001600160a01b03808716600090815260016020819052604080832083815591820183905560028083018490556003909201805460ff191690559054905192169183156108fc0291849190818181858888f19350505050158015610464573d6000803e3d6000fd5b50604080516001600160a01b0388168152602081018390527fa5ee7a2b0254fce91deed604506790ed7fa072d0b14cba4859c3bc8955b9caac910160405180910390a150505050506104b66001600055565b50565b6104c1610a91565b6000341161051d5760405162461bcd60e51b815260206004820152602360248201527f4d757374206465706f73697420736f6d652045544820617320636f6c6c6174656044820152621c985b60ea1b60648201526084016102c7565b3360009081526001602052604090206003015460ff16156105805760405162461bcd60e51b815260206004820152601a60248201527f416c72656164792068617320616e20616374697665206c6f616e00000000000060448201526064016102c7565b6040805160808101825234808252600060208084018281524285870190815260608601848152338086526001808652958990209751885592519487019490945551600286015591516003909401805460ff1916941515949094179093558351908152918201527fd7243f6f8212d5188fd054141cf6ea89cfc0d91facb8c3afe2f88a1358480142910160405180910390a161061b6001600055565b565b610625610a91565b33600090815260016020526040902080546106825760405162461bcd60e51b815260206004820152601760248201527f4e6f20636f6c6c61746572616c206465706f736974656400000000000000000060448201526064016102c7565b600381015460ff16156106cd5760405162461bcd60e51b81526020600482015260136024820152724c6f616e20616c72656164792061637469766560681b60448201526064016102c7565b60045481546106e29160649161039b91610b02565b8211156107465760405162461bcd60e51b815260206004820152602c60248201527f43616e6e6f7420626f72726f77206d6f7265207468616e20636f6c6c6174657260448201526b185b081d1a1c995cda1bdb1960a21b60648201526084016102c7565b814710156107965760405162461bcd60e51b815260206004820152601c60248201527f4e6f7420656e6f7567682066756e647320696e20636f6e74726163740000000060448201526064016102c7565b600180820183905542600283015560038201805460ff19169091179055604051339083156108fc029084906000818181858888f193505050501580156107e0573d6000803e3d6000fd5b5060408051338152602081018490527fd5c776eab9418d89c040ffee59f2310d225f5ff682191bcee59b0413a7fd4835910160405180910390a1506104b66001600055565b60006108586108396301e133806064610b02565b61039b8461085260035488610b0290919063ffffffff16565b90610b02565b90505b92915050565b610869610a91565b336000908152600160205260409020600381015460ff166108bd5760405162461bcd60e51b815260206004820152600e60248201526d27379030b1ba34bb32903637b0b760911b60448201526064016102c7565b60006108d6826002015442610aea90919063ffffffff16565b905060006108e8836001015483610825565b90506000610903828560010154610af690919063ffffffff16565b9050803410156109555760405162461bcd60e51b815260206004820152601d60248201527f496e73756666696369656e742072657061796d656e7420616d6f756e7400000060448201526064016102c7565b60006109613483610aea565b60038601805460ff191690558554604051919250339181156108fc0291906000818181858888f1935050505015801561099e573d6000803e3d6000fd5b506002546040516001600160a01b039091169083156108fc029084906000818181858888f193505050501580156109d9573d6000803e3d6000fd5b508015610a0f57604051339082156108fc029083906000818181858888f19350505050158015610a0d573d6000803e3d6000fd5b505b600185015460408051338152602081019290925281018490527fc7ce0a35f17b490de2a317e7fecb2cae86b1abffb03800b2f4928235213826989060600160405180910390a1505033600090815260016020819052604082208281559081018290556002810191909155600301805460ff191690555061061b9150610b1a9050565b600260005403610ae35760405162461bcd60e51b815260206004820152601f60248201527f5265656e7472616e637947756172643a207265656e7472616e742063616c6c0060448201526064016102c7565b6002600055565b60006108588284610ba2565b60006108588284610bb5565b60006108588284610bc8565b60006108588284610bdf565b6001600055565b600060208284031215610b3357600080fd5b81356001600160a01b0381168114610b4a57600080fd5b9392505050565b600060208284031215610b6357600080fd5b5035919050565b60008060408385031215610b7d57600080fd5b50508035926020909101359150565b634e487b7160e01b600052601160045260246000fd5b8181038181111561085b5761085b610b8c565b8082018082111561085b5761085b610b8c565b808202811582820484141761085b5761085b610b8c565b600082610bfc57634e487b7160e01b600052601260045260246000fd5b50049056fea264697066735822122003a8529fca036b711299e4011d112d1c3a815ce772768e75651b1ef7e138fae864736f6c634300081c0033","opcodes":"PUSH1 0x80 PUSH1 0x40 MSTORE CALLVALUE DUP1 ISZERO PUSH1 0xF JUMPI PUSH1 0x0 DUP1 REVERT JUMPDEST POP PUSH1 0x40 MLOAD PUSH2 0xCB9 CODESIZE SUB DUP1 PUSH2 0xCB9 DUP4 CODECOPY DUP2 ADD PUSH1 0x40 DUP2 SWAP1 MSTORE PUSH1 0x2C SWAP2 PUSH1 0x50 JUMP JUMPDEST PUSH1 0x1 PUSH1 0x0 SSTORE PUSH1 0x2 DUP1 SLOAD PUSH1 0x1 PUSH1 0x1 PUSH1 0xA0 SHL SUB NOT AND CALLER OR SWAP1 SSTORE PUSH1 0x3 SWAP2 SWAP1 SWAP2 SSTORE PUSH1 0x4 SSTORE PUSH1 0x73 JUMP JUMPDEST PUSH1 0x0 DUP1 PUSH1 0x40 DUP4 DUP6 SUB SLT ISZERO PUSH1 0x62 JUMPI PUSH1 0x0 DUP1 REVERT JUMPDEST POP POP DUP1 MLOAD PUSH1 0x20 SWAP1 SWAP2 ADD MLOAD SWAP1 SWAP3 SWAP1 SWAP2 POP JUMP JUMPDEST PUSH2 0xC37 DUP1 PUSH2 0x82 PUSH1 0x0 CODECOPY PUSH1 0x0 RETURN INVALID PUSH1 0x80 PUSH1 0x40 MSTORE PUSH1 0x4 CALLDATASIZE LT PUSH2 0xA0 JUMPI PUSH1 0x0 CALLDATALOAD PUSH1 0xE0 SHR DUP1 PUSH4 0x7C3A00FD GT PUSH2 0x64 JUMPI DUP1 PUSH4 0x7C3A00FD EQ PUSH2 0x17F JUMPI DUP1 PUSH4 0xBCEAD63E EQ PUSH2 0x195 JUMPI DUP1 PUSH4 0xC5EBEAEC EQ PUSH2 0x1CD JUMPI DUP1 PUSH4 0xE8A7DA8E EQ PUSH2 0x1ED JUMPI DUP1 PUSH4 0xEFDD7C07 EQ PUSH2 0x23D JUMPI DUP1 PUSH4 0xF966ADE7 EQ PUSH2 0x25D JUMPI PUSH1 0x0 DUP1 REVERT JUMPDEST DUP1 PUSH4 0x2F865568 EQ PUSH2 0xAC JUMPI DUP1 PUSH4 0x4031234C EQ PUSH2 0xCE JUMPI DUP1 PUSH4 0x5DCC9391 EQ PUSH2 0xF7 JUMPI DUP1 PUSH4 0x6F758140 EQ PUSH2 0x10F JUMPI DUP1 PUSH4 0x73B4086B EQ PUSH2 0x117 JUMPI PUSH1 0x0 DUP1 REVERT JUMPDEST CALLDATASIZE PUSH2 0xA7 JUMPI STOP JUMPDEST PUSH1 0x0 DUP1 REVERT JUMPDEST CALLVALUE DUP1 ISZERO PUSH2 0xB8 JUMPI PUSH1 0x0 DUP1 REVERT JUMPDEST POP PUSH2 0xCC PUSH2 0xC7 CALLDATASIZE PUSH1 0x4 PUSH2 0xB21 JUMP JUMPDEST PUSH2 0x265 JUMP JUMPDEST STOP JUMPDEST CALLVALUE DUP1 ISZERO PUSH2 0xDA JUMPI PUSH1 0x0 DUP1 REVERT JUMPDEST POP PUSH2 0xE4 PUSH1 0x4 SLOAD DUP2 JUMP JUMPDEST PUSH1 0x40 MLOAD SWAP1 DUP2 MSTORE PUSH1 0x20 ADD JUMPDEST PUSH1 0x40 MLOAD DUP1 SWAP2 SUB SWAP1 RETURN JUMPDEST CALLVALUE DUP1 ISZERO PUSH2 0x103 JUMPI PUSH1 0x0 DUP1 REVERT JUMPDEST POP PUSH2 0xE4 PUSH4 0x1E13380 DUP2 JUMP JUMPDEST PUSH2 0xCC PUSH2 0x4B9 JUMP JUMPDEST CALLVALUE DUP1 ISZERO PUSH2 0x123 JUMPI PUSH1 0x0 DUP1 REVERT JUMPDEST POP PUSH2 0x15D PUSH2 0x132 CALLDATASIZE PUSH1 0x4 PUSH2 0xB21 JUMP JUMPDEST PUSH1 0x1 PUSH1 0x20 DUP2 SWAP1 MSTORE PUSH1 0x0 SWAP2 DUP3 MSTORE PUSH1 0x40 SWAP1 SWAP2 KECCAK256 DUP1 SLOAD SWAP2 DUP2 ADD SLOAD PUSH1 0x2 DUP3 ADD SLOAD PUSH1 0x3 SWAP1 SWAP3 ADD SLOAD SWAP1 SWAP2 SWAP1 PUSH1 0xFF AND DUP5 JUMP JUMPDEST PUSH1 0x40 DUP1 MLOAD SWAP5 DUP6 MSTORE PUSH1 0x20 DUP6 ADD SWAP4 SWAP1 SWAP4 MSTORE SWAP2 DUP4 ADD MSTORE ISZERO ISZERO PUSH1 0x60 DUP3 ADD MSTORE PUSH1 0x80 ADD PUSH2 0xEE JUMP JUMPDEST CALLVALUE DUP1 ISZERO PUSH2 0x18B JUMPI PUSH1 0x0 DUP1 REVERT JUMPDEST POP PUSH2 0xE4 PUSH1 0x3 SLOAD DUP2 JUMP JUMPDEST CALLVALUE DUP1 ISZERO PUSH2 0x1A1 JUMPI PUSH1 0x0 DUP1 REVERT JUMPDEST POP PUSH1 0x2 SLOAD PUSH2 0x1B5 SWAP1 PUSH1 0x1 PUSH1 0x1 PUSH1 0xA0 SHL SUB AND DUP2 JUMP JUMPDEST PUSH1 0x40 MLOAD PUSH1 0x1 PUSH1 0x1 PUSH1 0xA0 SHL SUB SWAP1 SWAP2 AND DUP2 MSTORE PUSH1 0x20 ADD PUSH2 0xEE JUMP JUMPDEST CALLVALUE DUP1 ISZERO PUSH2 0x1D9 JUMPI PUSH1 0x0 DUP1 REVERT JUMPDEST POP PUSH2 0xCC PUSH2 0x1E8 CALLDATASIZE PUSH1 0x4 PUSH2 0xB51 JUMP JUMPDEST PUSH2 0x61D JUMP JUMPDEST CALLVALUE DUP1 ISZERO PUSH2 0x1F9 JUMPI PUSH1 0x0 DUP1 REVERT JUMPDEST POP PUSH2 0x15D PUSH2 0x208 CALLDATASIZE PUSH1 0x4 PUSH2 0xB21 JUMP JUMPDEST PUSH1 0x1 PUSH1 0x1 PUSH1 0xA0 SHL SUB AND PUSH1 0x0 SWAP1 DUP2 MSTORE PUSH1 0x1 PUSH1 0x20 DUP2 SWAP1 MSTORE PUSH1 0x40 SWAP1 SWAP2 KECCAK256 DUP1 SLOAD SWAP2 DUP2 ADD SLOAD PUSH1 0x2 DUP3 ADD SLOAD PUSH1 0x3 SWAP1 SWAP3 ADD SLOAD SWAP3 SWAP4 SWAP1 SWAP3 PUSH1 0xFF AND SWAP1 JUMP JUMPDEST CALLVALUE DUP1 ISZERO PUSH2 0x249 JUMPI PUSH1 0x0 DUP1 REVERT JUMPDEST POP PUSH2 0xE4 PUSH2 0x258 CALLDATASIZE PUSH1 0x4 PUSH2 0xB6A JUMP JUMPDEST PUSH2 0x825 JUMP JUMPDEST PUSH2 0xCC PUSH2 0x861 JUMP JUMPDEST PUSH1 0x2 SLOAD PUSH1 0x1 PUSH1 0x1 PUSH1 0xA0 SHL SUB AND CALLER EQ PUSH2 0x2D0 JUMPI PUSH1 0x40 MLOAD PUSH3 0x461BCD PUSH1 0xE5 SHL DUP2 MSTORE PUSH1 0x20 PUSH1 0x4 DUP3 ADD MSTORE PUSH1 0x23 PUSH1 0x24 DUP3 ADD MSTORE PUSH32 0x4F6E6C79206C656E6465722063616E20706572666F726D207468697320616374 PUSH1 0x44 DUP3 ADD MSTORE PUSH3 0x34B7B7 PUSH1 0xE9 SHL PUSH1 0x64 DUP3 ADD MSTORE PUSH1 0x84 ADD JUMPDEST PUSH1 0x40 MLOAD DUP1 SWAP2 SUB SWAP1 REVERT JUMPDEST PUSH2 0x2D8 PUSH2 0xA91 JUMP JUMPDEST PUSH1 0x1 PUSH1 0x1 PUSH1 0xA0 SHL SUB DUP2 AND PUSH1 0x0 SWAP1 DUP2 MSTORE PUSH1 0x1 PUSH1 0x20 MSTORE PUSH1 0x40 SWAP1 KECCAK256 PUSH1 0x3 DUP2 ADD SLOAD PUSH1 0xFF AND PUSH2 0x335 JUMPI PUSH1 0x40 MLOAD PUSH3 0x461BCD PUSH1 0xE5 SHL DUP2 MSTORE PUSH1 0x20 PUSH1 0x4 DUP3 ADD MSTORE PUSH1 0xE PUSH1 0x24 DUP3 ADD MSTORE PUSH14 0x27379030B1BA34BB32903637B0B7 PUSH1 0x91 SHL PUSH1 0x44 DUP3 ADD MSTORE PUSH1 0x64 ADD PUSH2 0x2C7 JUMP JUMPDEST PUSH1 0x0 PUSH2 0x34E DUP3 PUSH1 0x2 ADD SLOAD TIMESTAMP PUSH2 0xAEA SWAP1 SWAP2 SWAP1 PUSH4 0xFFFFFFFF AND JUMP JUMPDEST SWAP1 POP PUSH1 0x0 PUSH2 0x360 DUP4 PUSH1 0x1 ADD SLOAD DUP4 PUSH2 0x825 JUMP JUMPDEST SWAP1 POP PUSH1 0x0 PUSH2 0x37B DUP3 DUP6 PUSH1 0x1 ADD SLOAD PUSH2 0xAF6 SWAP1 SWAP2 SWAP1 PUSH4 0xFFFFFFFF AND JUMP JUMPDEST SWAP1 POP PUSH2 0x3A1 PUSH1 0x64 PUSH2 0x39B PUSH1 0x4 SLOAD DUP8 PUSH1 0x0 ADD SLOAD PUSH2 0xB02 SWAP1 SWAP2 SWAP1 PUSH4 0xFFFFFFFF AND JUMP JUMPDEST SWAP1 PUSH2 0xB0E JUMP JUMPDEST DUP2 LT ISZERO PUSH2 0x3FA JUMPI PUSH1 0x40 MLOAD PUSH3 0x461BCD PUSH1 0xE5 SHL DUP2 MSTORE PUSH1 0x20 PUSH1 0x4 DUP3 ADD MSTORE PUSH1 0x21 PUSH1 0x24 DUP3 ADD MSTORE PUSH32 0x4C6F616E206E6F7420656C696769626C6520666F72206C69717569646174696F PUSH1 0x44 DUP3 ADD MSTORE PUSH1 0x37 PUSH1 0xF9 SHL PUSH1 0x64 DUP3 ADD MSTORE PUSH1 0x84 ADD PUSH2 0x2C7 JUMP JUMPDEST DUP4 SLOAD PUSH1 0x1 PUSH1 0x1 PUSH1 0xA0 SHL SUB DUP1 DUP8 AND PUSH1 0x0 SWAP1 DUP2 MSTORE PUSH1 0x1 PUSH1 0x20 DUP2 SWAP1 MSTORE PUSH1 0x40 DUP1 DUP4 KECCAK256 DUP4 DUP2 SSTORE SWAP2 DUP3 ADD DUP4 SWAP1 SSTORE PUSH1 0x2 DUP1 DUP4 ADD DUP5 SWAP1 SSTORE PUSH1 0x3 SWAP1 SWAP3 ADD DUP1 SLOAD PUSH1 0xFF NOT AND SWAP1 SSTORE SWAP1 SLOAD SWAP1 MLOAD SWAP3 AND SWAP2 DUP4 ISZERO PUSH2 0x8FC MUL SWAP2 DUP5 SWAP2 SWAP1 DUP2 DUP2 DUP2 DUP6 DUP9 DUP9 CALL SWAP4 POP POP POP POP ISZERO DUP1 ISZERO PUSH2 0x464 JUMPI RETURNDATASIZE PUSH1 0x0 DUP1 RETURNDATACOPY RETURNDATASIZE PUSH1 0x0 REVERT JUMPDEST POP PUSH1 0x40 DUP1 MLOAD PUSH1 0x1 PUSH1 0x1 PUSH1 0xA0 SHL SUB DUP9 AND DUP2 MSTORE PUSH1 0x20 DUP2 ADD DUP4 SWAP1 MSTORE PUSH32 0xA5EE7A2B0254FCE91DEED604506790ED7FA072D0B14CBA4859C3BC8955B9CAAC SWAP2 ADD PUSH1 0x40 MLOAD DUP1 SWAP2 SUB SWAP1 LOG1 POP POP POP POP POP PUSH2 0x4B6 PUSH1 0x1 PUSH1 0x0 SSTORE JUMP JUMPDEST POP JUMP JUMPDEST PUSH2 0x4C1 PUSH2 0xA91 JUMP JUMPDEST PUSH1 0x0 CALLVALUE GT PUSH2 0x51D JUMPI PUSH1 0x40 MLOAD PUSH3 0x461BCD PUSH1 0xE5 SHL DUP2 MSTORE PUSH1 0x20 PUSH1 0x4 DUP3 ADD MSTORE PUSH1 0x23 PUSH1 0x24 DUP3 ADD MSTORE PUSH32 0x4D757374206465706F73697420736F6D652045544820617320636F6C6C617465 PUSH1 0x44 DUP3 ADD MSTORE PUSH3 0x1C985B PUSH1 0xEA SHL PUSH1 0x64 DUP3 ADD MSTORE PUSH1 0x84 ADD PUSH2 0x2C7 JUMP JUMPDEST CALLER PUSH1 0x0 SWAP1 DUP2 MSTORE PUSH1 0x1 PUSH1 0x20 MSTORE PUSH1 0x40 SWAP1 KECCAK256 PUSH1 0x3 ADD SLOAD PUSH1 0xFF AND ISZERO PUSH2 0x580 JUMPI PUSH1 0x40 MLOAD PUSH3 0x461BCD PUSH1 0xE5 SHL DUP2 MSTORE PUSH1 0x20 PUSH1 0x4 DUP3 ADD MSTORE PUSH1 0x1A PUSH1 0x24 DUP3 ADD MSTORE PUSH32 0x416C72656164792068617320616E20616374697665206C6F616E000000000000 PUSH1 0x44 DUP3 ADD MSTORE PUSH1 0x64 ADD PUSH2 0x2C7 JUMP JUMPDEST PUSH1 0x40 DUP1 MLOAD PUSH1 0x80 DUP2 ADD DUP3 MSTORE CALLVALUE DUP1 DUP3 MSTORE PUSH1 0x0 PUSH1 0x20 DUP1 DUP5 ADD DUP3 DUP2 MSTORE TIMESTAMP DUP6 DUP8 ADD SWAP1 DUP2 MSTORE PUSH1 0x60 DUP7 ADD DUP5 DUP2 MSTORE CALLER DUP1 DUP7 MSTORE PUSH1 0x1 DUP1 DUP7 MSTORE SWAP6 DUP10 SWAP1 KECCAK256 SWAP8 MLOAD DUP9 SSTORE SWAP3 MLOAD SWAP5 DUP8 ADD SWAP5 SWAP1 SWAP5 SSTORE MLOAD PUSH1 0x2 DUP7 ADD SSTORE SWAP2 MLOAD PUSH1 0x3 SWAP1 SWAP5 ADD DUP1 SLOAD PUSH1 0xFF NOT AND SWAP5 ISZERO ISZERO SWAP5 SWAP1 SWAP5 OR SWAP1 SWAP4 SSTORE DUP4 MLOAD SWAP1 DUP2 MSTORE SWAP2 DUP3 ADD MSTORE PUSH32 0xD7243F6F8212D5188FD054141CF6EA89CFC0D91FACB8C3AFE2F88A1358480142 SWAP2 ADD PUSH1 0x40 MLOAD DUP1 SWAP2 SUB SWAP1 LOG1 PUSH2 0x61B PUSH1 0x1 PUSH1 0x0 SSTORE JUMP JUMPDEST JUMP JUMPDEST PUSH2 0x625 PUSH2 0xA91 JUMP JUMPDEST CALLER PUSH1 0x0 SWAP1 DUP2 MSTORE PUSH1 0x1 PUSH1 0x20 MSTORE PUSH1 0x40 SWAP1 KECCAK256 DUP1 SLOAD PUSH2 0x682 JUMPI PUSH1 0x40 MLOAD PUSH3 0x461BCD PUSH1 0xE5 SHL DUP2 MSTORE PUSH1 0x20 PUSH1 0x4 DUP3 ADD MSTORE PUSH1 0x17 PUSH1 0x24 DUP3 ADD MSTORE PUSH32 0x4E6F20636F6C6C61746572616C206465706F7369746564000000000000000000 PUSH1 0x44 DUP3 ADD MSTORE PUSH1 0x64 ADD PUSH2 0x2C7 JUMP JUMPDEST PUSH1 0x3 DUP2 ADD SLOAD PUSH1 0xFF AND ISZERO PUSH2 0x6CD JUMPI PUSH1 0x40 MLOAD PUSH3 0x461BCD PUSH1 0xE5 SHL DUP2 MSTORE PUSH1 0x20 PUSH1 0x4 DUP3 ADD MSTORE PUSH1 0x13 PUSH1 0x24 DUP3 ADD MSTORE PUSH19 0x4C6F616E20616C726561647920616374697665 PUSH1 0x68 SHL PUSH1 0x44 DUP3 ADD MSTORE PUSH1 0x64 ADD PUSH2 0x2C7 JUMP JUMPDEST PUSH1 0x4 SLOAD DUP2 SLOAD PUSH2 0x6E2 SWAP2 PUSH1 0x64 SWAP2 PUSH2 0x39B SWAP2 PUSH2 0xB02 JUMP JUMPDEST DUP3 GT ISZERO PUSH2 0x746 JUMPI PUSH1 0x40 MLOAD PUSH3 0x461BCD PUSH1 0xE5 SHL DUP2 MSTORE PUSH1 0x20 PUSH1 0x4 DUP3 ADD MSTORE PUSH1 0x2C PUSH1 0x24 DUP3 ADD MSTORE PUSH32 0x43616E6E6F7420626F72726F77206D6F7265207468616E20636F6C6C61746572 PUSH1 0x44 DUP3 ADD MSTORE PUSH12 0x185B081D1A1C995CDA1BDB19 PUSH1 0xA2 SHL PUSH1 0x64 DUP3 ADD MSTORE PUSH1 0x84 ADD PUSH2 0x2C7 JUMP JUMPDEST DUP2 SELFBALANCE LT ISZERO PUSH2 0x796 JUMPI PUSH1 0x40 MLOAD PUSH3 0x461BCD PUSH1 0xE5 SHL DUP2 MSTORE PUSH1 0x20 PUSH1 0x4 DUP3 ADD MSTORE PUSH1 0x1C PUSH1 0x24 DUP3 ADD MSTORE PUSH32 0x4E6F7420656E6F7567682066756E647320696E20636F6E747261637400000000 PUSH1 0x44 DUP3 ADD MSTORE PUSH1 0x64 ADD PUSH2 0x2C7 JUMP JUMPDEST PUSH1 0x1 DUP1 DUP3 ADD DUP4 SWAP1 SSTORE TIMESTAMP PUSH1 0x2 DUP4 ADD SSTORE PUSH1 0x3 DUP3 ADD DUP1 SLOAD PUSH1 0xFF NOT AND SWAP1 SWAP2 OR SWAP1 SSTORE PUSH1 0x40 MLOAD CALLER SWAP1 DUP4 ISZERO PUSH2 0x8FC MUL SWAP1 DUP5 SWAP1 PUSH1 0x0 DUP2 DUP2 DUP2 DUP6 DUP9 DUP9 CALL SWAP4 POP POP POP POP ISZERO DUP1 ISZERO PUSH2 0x7E0 JUMPI RETURNDATASIZE PUSH1 0x0 DUP1 RETURNDATACOPY RETURNDATASIZE PUSH1 0x0 REVERT JUMPDEST POP PUSH1 0x40 DUP1 MLOAD CALLER DUP2 MSTORE PUSH1 0x20 DUP2 ADD DUP5 SWAP1 MSTORE PUSH32 0xD5C776EAB9418D89C040FFEE59F2310D225F5FF682191BCEE59B0413A7FD4835 SWAP2 ADD PUSH1 0x40 MLOAD DUP1 SWAP2 SUB SWAP1 LOG1 POP PUSH2 0x4B6 PUSH1 0x1 PUSH1 0x0 SSTORE JUMP JUMPDEST PUSH1 0x0 PUSH2 0x858 PUSH2 0x839 PUSH4 0x1E13380 PUSH1 0x64 PUSH2 0xB02 JUMP JUMPDEST PUSH2 0x39B DUP5 PUSH2 0x852 PUSH1 0x3 SLOAD DUP9 PUSH2 0xB02 SWAP1 SWAP2 SWAP1 PUSH4 0xFFFFFFFF AND JUMP JUMPDEST SWAP1 PUSH2 0xB02 JUMP JUMPDEST SWAP1 POP JUMPDEST SWAP3 SWAP2 POP POP JUMP JUMPDEST PUSH2 0x869 PUSH2 0xA91 JUMP JUMPDEST CALLER PUSH1 0x0 SWAP1 DUP2 MSTORE PUSH1 0x1 PUSH1 0x20 MSTORE PUSH1 0x40 SWAP1 KECCAK256 PUSH1 0x3 DUP2 ADD SLOAD PUSH1 0xFF AND PUSH2 0x8BD JUMPI PUSH1 0x40 MLOAD PUSH3 0x461BCD PUSH1 0xE5 SHL DUP2 MSTORE PUSH1 0x20 PUSH1 0x4 DUP3 ADD MSTORE PUSH1 0xE PUSH1 0x24 DUP3 ADD MSTORE PUSH14 0x27379030B1BA34BB32903637B0B7 PUSH1 0x91 SHL PUSH1 0x44 DUP3 ADD MSTORE PUSH1 0x64 ADD PUSH2 0x2C7 JUMP JUMPDEST PUSH1 0x0 PUSH2 0x8D6 DUP3 PUSH1 0x2 ADD SLOAD TIMESTAMP PUSH2 0xAEA SWAP1 SWAP2 SWAP1 PUSH4 0xFFFFFFFF AND JUMP JUMPDEST SWAP1 POP PUSH1 0x0 PUSH2 0x8E8 DUP4 PUSH1 0x1 ADD SLOAD DUP4 PUSH2 0x825 JUMP JUMPDEST SWAP1 POP PUSH1 0x0 PUSH2 0x903 DUP3 DUP6 PUSH1 0x1 ADD SLOAD PUSH2 0xAF6 SWAP1 SWAP2 SWAP1 PUSH4 0xFFFFFFFF AND JUMP JUMPDEST SWAP1 POP DUP1 CALLVALUE LT ISZERO PUSH2 0x955 JUMPI PUSH1 0x40 MLOAD PUSH3 0x461BCD PUSH1 0xE5 SHL DUP2 MSTORE PUSH1 0x20 PUSH1 0x4 DUP3 ADD MSTORE PUSH1 0x1D PUSH1 0x24 DUP3 ADD MSTORE PUSH32 0x496E73756666696369656E742072657061796D656E7420616D6F756E74000000 PUSH1 0x44 DUP3 ADD MSTORE PUSH1 0x64 ADD PUSH2 0x2C7 JUMP JUMPDEST PUSH1 0x0 PUSH2 0x961 CALLVALUE DUP4 PUSH2 0xAEA JUMP JUMPDEST PUSH1 0x3 DUP7 ADD DUP1 SLOAD PUSH1 0xFF NOT AND SWAP1 SSTORE DUP6 SLOAD PUSH1 0x40 MLOAD SWAP2 SWAP3 POP CALLER SWAP2 DUP2 ISZERO PUSH2 0x8FC MUL SWAP2 SWAP1 PUSH1 0x0 DUP2 DUP2 DUP2 DUP6 DUP9 DUP9 CALL SWAP4 POP POP POP POP ISZERO DUP1 ISZERO PUSH2 0x99E JUMPI RETURNDATASIZE PUSH1 0x0 DUP1 RETURNDATACOPY RETURNDATASIZE PUSH1 0x0 REVERT JUMPDEST POP PUSH1 0x2 SLOAD PUSH1 0x40 MLOAD PUSH1 0x1 PUSH1 0x1 PUSH1 0xA0 SHL SUB SWAP1 SWAP2 AND SWAP1 DUP4 ISZERO PUSH2 0x8FC MUL SWAP1 DUP5 SWAP1 PUSH1 0x0 DUP2 DUP2 DUP2 DUP6 DUP9 DUP9 CALL SWAP4 POP POP POP POP ISZERO DUP1 ISZERO PUSH2 0x9D9 JUMPI RETURNDATASIZE PUSH1 0x0 DUP1 RETURNDATACOPY RETURNDATASIZE PUSH1 0x0 REVERT JUMPDEST POP DUP1 ISZERO PUSH2 0xA0F JUMPI PUSH1 0x40 MLOAD CALLER SWAP1 DUP3 ISZERO PUSH2 0x8FC MUL SWAP1 DUP4 SWAP1 PUSH1 0x0 DUP2 DUP2 DUP2 DUP6 DUP9 DUP9 CALL SWAP4 POP POP POP POP ISZERO DUP1 ISZERO PUSH2 0xA0D JUMPI RETURNDATASIZE PUSH1 0x0 DUP1 RETURNDATACOPY RETURNDATASIZE PUSH1 0x0 REVERT JUMPDEST POP JUMPDEST PUSH1 0x1 DUP6 ADD SLOAD PUSH1 0x40 DUP1 MLOAD CALLER DUP2 MSTORE PUSH1 0x20 DUP2 ADD SWAP3 SWAP1 SWAP3 MSTORE DUP2 ADD DUP5 SWAP1 MSTORE PUSH32 0xC7CE0A35F17B490DE2A317E7FECB2CAE86B1ABFFB03800B2F492823521382698 SWAP1 PUSH1 0x60 ADD PUSH1 0x40 MLOAD DUP1 SWAP2 SUB SWAP1 LOG1 POP POP CALLER PUSH1 0x0 SWAP1 DUP2 MSTORE PUSH1 0x1 PUSH1 0x20 DUP2 SWAP1 MSTORE PUSH1 0x40 DUP3 KECCAK256 DUP3 DUP2 SSTORE SWAP1 DUP2 ADD DUP3 SWAP1 SSTORE PUSH1 0x2 DUP2 ADD SWAP2 SWAP1 SWAP2 SSTORE PUSH1 0x3 ADD DUP1 SLOAD PUSH1 0xFF NOT AND SWAP1 SSTORE POP PUSH2 0x61B SWAP2 POP PUSH2 0xB1A SWAP1 POP JUMP JUMPDEST PUSH1 0x2 PUSH1 0x0 SLOAD SUB PUSH2 0xAE3 JUMPI PUSH1 0x40 MLOAD PUSH3 0x461BCD PUSH1 0xE5 SHL DUP2 MSTORE PUSH1 0x20 PUSH1 0x4 DUP3 ADD MSTORE PUSH1 0x1F PUSH1 0x24 DUP3 ADD MSTORE PUSH32 0x5265656E7472616E637947756172643A207265656E7472616E742063616C6C00 PUSH1 0x44 DUP3 ADD MSTORE PUSH1 0x64 ADD PUSH2 0x2C7 JUMP JUMPDEST PUSH1 0x2 PUSH1 0x0 SSTORE JUMP JUMPDEST PUSH1 0x0 PUSH2 0x858 DUP3 DUP5 PUSH2 0xBA2 JUMP JUMPDEST PUSH1 0x0 PUSH2 0x858 DUP3 DUP5 PUSH2 0xBB5 JUMP JUMPDEST PUSH1 0x0 PUSH2 0x858 DUP3 DUP5 PUSH2 0xBC8 JUMP JUMPDEST PUSH1 0x0 PUSH2 0x858 DUP3 DUP5 PUSH2 0xBDF JUMP JUMPDEST PUSH1 0x1 PUSH1 0x0 SSTORE JUMP JUMPDEST PUSH1 0x0 PUSH1 0x20 DUP3 DUP5 SUB SLT ISZERO PUSH2 0xB33 JUMPI PUSH1 0x0 DUP1 REVERT JUMPDEST DUP2 CALLDATALOAD PUSH1 0x1 PUSH1 0x1 PUSH1 0xA0 SHL SUB DUP2 AND DUP2 EQ PUSH2 0xB4A JUMPI PUSH1 0x0 DUP1 REVERT JUMPDEST SWAP4 SWAP3 POP POP POP JUMP JUMPDEST PUSH1 0x0 PUSH1 0x20 DUP3 DUP5 SUB SLT ISZERO PUSH2 0xB63 JUMPI PUSH1 0x0 DUP1 REVERT JUMPDEST POP CALLDATALOAD SWAP2 SWAP1 POP JUMP JUMPDEST PUSH1 0x0 DUP1 PUSH1 0x40 DUP4 DUP6 SUB SLT ISZERO PUSH2 0xB7D JUMPI PUSH1 0x0 DUP1 REVERT JUMPDEST POP POP DUP1 CALLDATALOAD SWAP3 PUSH1 0x20 SWAP1 SWAP2 ADD CALLDATALOAD SWAP2 POP JUMP JUMPDEST PUSH4 0x4E487B71 PUSH1 0xE0 SHL PUSH1 0x0 MSTORE PUSH1 0x11 PUSH1 0x4 MSTORE PUSH1 0x24 PUSH1 0x0 REVERT JUMPDEST DUP2 DUP2 SUB DUP2 DUP2 GT ISZERO PUSH2 0x85B JUMPI PUSH2 0x85B PUSH2 0xB8C JUMP JUMPDEST DUP1 DUP3 ADD DUP1 DUP3 GT ISZERO PUSH2 0x85B JUMPI PUSH2 0x85B PUSH2 0xB8C JUMP JUMPDEST DUP1 DUP3 MUL DUP2 ISZERO DUP3 DUP3 DIV DUP5 EQ OR PUSH2 0x85B JUMPI PUSH2 0x85B PUSH2 0xB8C JUMP JUMPDEST PUSH1 0x0 DUP3 PUSH2 0xBFC JUMPI PUSH4 0x4E487B71 PUSH1 0xE0 SHL PUSH1 0x0 MSTORE PUSH1 0x12 PUSH1 0x4 MSTORE PUSH1 0x24 PUSH1 0x0 REVERT JUMPDEST POP DIV SWAP1 JUMP INVALID LOG2 PUSH5 0x6970667358 0x22 SLT KECCAK256 SUB 0xA8 MSTORE SWAP16 0xCA SUB PUSH12 0x711299E4011D112D1C3A815C 0xE7 PUSH19 0x768E75651B1EF7E138FAE864736F6C63430008 SHR STOP CALLER "},"methodIdentifiers":{"SECONDS_IN_YEAR()":"5dcc9391","borrow(uint256)":"c5ebeaec","calculateInterest(uint256,uint256)":"efdd7c07","depositCollateral()":"6f758140","getLoanDetails(address)":"e8a7da8e","interestRate()":"7c3a00fd","lender()":"bcead63e","liquidate(address)":"2f865568","liquidationThreshold()":"4031234c","loans(address)":"73b4086b","repayLoan()":"f966ade7"}}}}}