{
  "_format": "hh-sol-artifact-1",
  "contractName": "LendingContract",
  "sourceName": "contracts/LendingContract.sol",
  "abi": [
    {
      "inputs": [
        {
          "internalType": "uint256",
          "name": "_interestRate",
          "type": "uint256"
        },
        {
          "internalType": "uint256",
          "name": "_liquidationThreshold",
          "type": "uint256"
        }
      ],
      "stateMutability": "payable",
      "type": "constructor"
    },
    {
      "anonymous": false,
      "inputs": [
        {
          "indexed": false,
          "internalType": "address",
          "name": "borrower",
          "type": "address"
        },
        {
          "indexed": false,
          "internalType": "uint256",
          "name": "amount",
          "type": "uint256"
        }
      ],
      "name": "CollateralDeposited",
      "type": "event"
    },
    {
      "anonymous": false,
      "inputs": [
        {
          "indexed": false,
          "internalType": "address",
          "name": "borrower",
          "type": "address"
        },
        {
          "indexed": false,
          "internalType": "uint256",
          "name": "amount",
          "type": "uint256"
        }
      ],
      "name": "CollateralWithdrawn",
      "type": "event"
    },
    {
      "anonymous": false,
      "inputs": [
        {
          "indexed": false,
          "internalType": "address",
          "name": "borrower",
          "type": "address"
        },
        {
          "indexed": false,
          "internalType": "uint256",
          "name": "collateralAmount",
          "type": "uint256"
        }
      ],
      "name": "Liquidated",
      "type": "event"
    },
    {
      "anonymous": false,
      "inputs": [
        {
          "indexed": false,
          "internalType": "address",
          "name": "borrower",
          "type": "address"
        },
        {
          "indexed": false,
          "internalType": "uint256",
          "name": "amount",
          "type": "uint256"
        },
        {
          "indexed": false,
          "internalType": "uint256",
          "name": "interest",
          "type": "uint256"
        }
      ],
      "name": "LoanRepaid",
      "type": "event"
    },
    {
      "anonymous": false,
      "inputs": [
        {
          "indexed": false,
          "internalType": "address",
          "name": "borrower",
          "type": "address"
        },
        {
          "indexed": false,
          "internalType": "uint256",
          "name": "amount",
          "type": "uint256"
        }
      ],
      "name": "LoanTaken",
      "type": "event"
    },
    {
      "inputs": [],
      "name": "BUFFER_TIME",
      "outputs": [
        {
          "internalType": "uint256",
          "name": "",
          "type": "uint256"
        }
      ],
      "stateMutability": "view",
      "type": "function"
    },
    {
      "inputs": [],
      "name": "INTEREST_DECIMALS",
      "outputs": [
        {
          "internalType": "uint256",
          "name": "",
          "type": "uint256"
        }
      ],
      "stateMutability": "view",
      "type": "function"
    },
    {
      "inputs": [],
      "name": "SECONDS_IN_YEAR",
      "outputs": [
        {
          "internalType": "uint256",
          "name": "",
          "type": "uint256"
        }
      ],
      "stateMutability": "view",
      "type": "function"
    },
    {
      "inputs": [
        {
          "internalType": "uint256",
          "name": "amount",
          "type": "uint256"
        }
      ],
      "name": "borrow",
      "outputs": [],
      "stateMutability": "nonpayable",
      "type": "function"
    },
    {
      "inputs": [
        {
          "internalType": "uint256",
          "name": "principal",
          "type": "uint256"
        },
        {
          "internalType": "uint256",
          "name": "timeElapsed",
          "type": "uint256"
        }
      ],
      "name": "calculateInterest",
      "outputs": [
        {
          "internalType": "uint256",
          "name": "",
          "type": "uint256"
        }
      ],
      "stateMutability": "view",
      "type": "function"
    },
    {
      "inputs": [],
      "name": "depositCollateral",
      "outputs": [],
      "stateMutability": "payable",
      "type": "function"
    },
    {
      "inputs": [
        {
          "internalType": "address",
          "name": "borrower",
          "type": "address"
        }
      ],
      "name": "getCurrentInterest",
      "outputs": [
        {
          "internalType": "uint256",
          "name": "",
          "type": "uint256"
        }
      ],
      "stateMutability": "view",
      "type": "function"
    },
    {
      "inputs": [
        {
          "internalType": "address",
          "name": "borrower",
          "type": "address"
        }
      ],
      "name": "getLoanDetails",
      "outputs": [
        {
          "internalType": "uint256",
          "name": "collateralAmount",
          "type": "uint256"
        },
        {
          "internalType": "uint256",
          "name": "loanAmount",
          "type": "uint256"
        },
        {
          "internalType": "uint256",
          "name": "timestamp",
          "type": "uint256"
        },
        {
          "internalType": "bool",
          "name": "active",
          "type": "bool"
        }
      ],
      "stateMutability": "view",
      "type": "function"
    },
    {
      "inputs": [
        {
          "internalType": "address",
          "name": "borrower",
          "type": "address"
        }
      ],
      "name": "getRequiredRepaymentAmount",
      "outputs": [
        {
          "internalType": "uint256",
          "name": "",
          "type": "uint256"
        }
      ],
      "stateMutability": "view",
      "type": "function"
    },
    {
      "inputs": [
        {
          "internalType": "address",
          "name": "borrower",
          "type": "address"
        },
        {
          "internalType": "uint256",
          "name": "customTimestamp",
          "type": "uint256"
        }
      ],
      "name": "getRequiredRepaymentAmountWithTimestamp",
      "outputs": [
        {
          "internalType": "uint256",
          "name": "",
          "type": "uint256"
        }
      ],
      "stateMutability": "view",
      "type": "function"
    },
    {
      "inputs": [],
      "name": "interestRate",
      "outputs": [
        {
          "internalType": "uint256",
          "name": "",
          "type": "uint256"
        }
      ],
      "stateMutability": "view",
      "type": "function"
    },
    {
      "inputs": [],
      "name": "lender",
      "outputs": [
        {
          "internalType": "address",
          "name": "",
          "type": "address"
        }
      ],
      "stateMutability": "view",
      "type": "function"
    },
    {
      "inputs": [
        {
          "internalType": "address",
          "name": "borrower",
          "type": "address"
        }
      ],
      "name": "liquidate",
      "outputs": [],
      "stateMutability": "nonpayable",
      "type": "function"
    },
    {
      "inputs": [],
      "name": "liquidationThreshold",
      "outputs": [
        {
          "internalType": "uint256",
          "name": "",
          "type": "uint256"
        }
      ],
      "stateMutability": "view",
      "type": "function"
    },
    {
      "inputs": [
        {
          "internalType": "address",
          "name": "",
          "type": "address"
        }
      ],
      "name": "loans",
      "outputs": [
        {
          "internalType": "uint256",
          "name": "collateralAmount",
          "type": "uint256"
        },
        {
          "internalType": "uint256",
          "name": "loanAmount",
          "type": "uint256"
        },
        {
          "internalType": "uint256",
          "name": "timestamp",
          "type": "uint256"
        },
        {
          "internalType": "bool",
          "name": "active",
          "type": "bool"
        }
      ],
      "stateMutability": "view",
      "type": "function"
    },
    {
      "inputs": [],
      "name": "repayLoan",
      "outputs": [],
      "stateMutability": "payable",
      "type": "function"
    },
    {
      "inputs": [],
      "name": "withdrawCollateral",
      "outputs": [],
      "stateMutability": "nonpayable",
      "type": "function"
    },
    {
      "stateMutability": "payable",
      "type": "receive"
    }
  ],
  "bytecode": "0x608060405260405161155f38038061155f8339810160408190526020916044565b6001600055600280546001600160a01b031916331790556003919091556004556067565b60008060408385031215605657600080fd5b505080516020909101519092909150565b6114e9806100766000396000f3fe6080604052600436106101025760003560e01c80639aa9e84911610095578063bcead63e11610064578063bcead63e14610296578063c5ebeaec146102ce578063e8a7da8e146102ee578063efdd7c071461033e578063f966ade71461035e57600080fd5b80639aa9e84914610221578063a0a5905514610241578063ac64f52614610261578063bc7cf6e51461028157600080fd5b80635dcc9391116100d15780635dcc9391146101835780636f7581401461019b57806373b4086b146101a35780637c3a00fd1461020b57600080fd5b80632f8655681461010e5780633a5333bb146101305780634031234c1461015857806359c153be1461016e57600080fd5b3661010957005b600080fd5b34801561011a57600080fd5b5061012e61012936600461113b565b610366565b005b34801561013c57600080fd5b50610145601281565b6040519081526020015b60405180910390f35b34801561016457600080fd5b5061014560045481565b34801561017a57600080fd5b5061012e6105ba565b34801561018f57600080fd5b506101456301e1338081565b61012e610721565b3480156101af57600080fd5b506101e96101be36600461113b565b6001602081905260009182526040909120805491810154600282015460039092015490919060ff1684565b604080519485526020850193909352918301521515606082015260800161014f565b34801561021757600080fd5b5061014560035481565b34801561022d57600080fd5b5061014561023c36600461113b565b610888565b34801561024d57600080fd5b5061014561025c36600461113b565b610934565b34801561026d57600080fd5b5061014561027c366004611156565b6109a1565b34801561028d57600080fd5b50610145603c81565b3480156102a257600080fd5b506002546102b6906001600160a01b031681565b6040516001600160a01b03909116815260200161014f565b3480156102da57600080fd5b5061012e6102e9366004611180565b610a50565b3480156102fa57600080fd5b506101e961030936600461113b565b6001600160a01b0316600090815260016020819052604090912080549181015460028201546003909201549293909260ff1690565b34801561034a57600080fd5b50610145610359366004611199565b610c58565b61012e610d0e565b6002546001600160a01b031633146103d15760405162461bcd60e51b815260206004820152602360248201527f4f6e6c79206c656e6465722063616e20706572666f726d20746869732061637460448201526234b7b760e91b60648201526084015b60405180910390fd5b6103d9610f83565b6001600160a01b0381166000908152600160205260409020600381015460ff166104365760405162461bcd60e51b815260206004820152600e60248201526d27379030b1ba34bb32903637b0b760911b60448201526064016103c8565b600061044f826002015442610fdc90919063ffffffff16565b90506000610461836001015483610c58565b9050600061047c828560010154610fef90919063ffffffff16565b90506104a2606461049c6004548760000154610ffb90919063ffffffff16565b90611007565b8110156104fb5760405162461bcd60e51b815260206004820152602160248201527f4c6f616e206e6f7420656c696769626c6520666f72206c69717569646174696f6044820152603760f91b60648201526084016103c8565b83546001600160a01b03808716600090815260016020819052604080832083815591820183905560028083018490556003909201805460ff191690559054905192169183156108fc0291849190818181858888f19350505050158015610565573d6000803e3d6000fd5b50604080516001600160a01b0388168152602081018390527fa5ee7a2b0254fce91deed604506790ed7fa072d0b14cba4859c3bc8955b9caac910160405180910390a150505050506105b76001600055565b50565b6105c2610f83565b336000908152600160205260409020805461061f5760405162461bcd60e51b815260206004820152601960248201527f4e6f20636f6c6c61746572616c20746f2077697468647261770000000000000060448201526064016103c8565b600381015460ff16156106805760405162461bcd60e51b8152602060048201526024808201527f43616e6e6f74207769746864726177207768696c65206c6f616e2069732061636044820152637469766560e01b60648201526084016103c8565b8054336000818152600160208190526040808320838155918201839055600282018390556003909101805460ff191690555183156108fc0291849190818181858888f193505050501580156106d9573d6000803e3d6000fd5b5060408051338152602081018390527fc30fcfbcaac9e0deffa719714eaa82396ff506a0d0d0eebe170830177288715d910160405180910390a1505061071f6001600055565b565b610729610f83565b600034116107855760405162461bcd60e51b815260206004820152602360248201527f4d757374206465706f73697420736f6d652045544820617320636f6c6c6174656044820152621c985b60ea1b60648201526084016103c8565b3360009081526001602052604090206003015460ff16156107e85760405162461bcd60e51b815260206004820152601a60248201527f416c72656164792068617320616e20616374697665206c6f616e00000000000060448201526064016103c8565b33600081815260016020818152604080842060038101805483516080810185523480825281870189815242838801908152606084018b81529a8c9052898952925186555197850197909755516002909301929092559451151560ff199091161790935582519384528301527fd7243f6f8212d5188fd054141cf6ea89cfc0d91facb8c3afe2f88a1358480142910160405180910390a161071f6001600055565b6001600160a01b0381166000908152600160205260408120600381015460ff166108c45760405162461bcd60e51b81526004016103c8906111bb565b60006108dd826002015442610fdc90919063ffffffff16565b905060006108ef836001015483610c58565b9050600061090a828560010154610fef90919063ffffffff16565b9050600061091d8560010154603c610c58565b90506109298282610fef565b979650505050505050565b6001600160a01b0381166000908152600160205260408120600381015460ff166109705760405162461bcd60e51b81526004016103c8906111bb565b6000610989826002015442610fdc90919063ffffffff16565b9050610999826001015482610c58565b949350505050565b6001600160a01b0382166000908152600160205260408120600381015460ff166109dd5760405162461bcd60e51b81526004016103c8906111bb565b60006109f6826002015485610fdc90919063ffffffff16565b90506000610a08836001015483610c58565b90506000610a23828560010154610fef90919063ffffffff16565b90506000610a368560010154603c610c58565b9050610a428282610fef565b955050505050505b92915050565b610a58610f83565b3360009081526001602052604090208054610ab55760405162461bcd60e51b815260206004820152601760248201527f4e6f20636f6c6c61746572616c206465706f736974656400000000000000000060448201526064016103c8565b600381015460ff1615610b005760405162461bcd60e51b81526020600482015260136024820152724c6f616e20616c72656164792061637469766560681b60448201526064016103c8565b6004548154610b159160649161049c91610ffb565b821115610b795760405162461bcd60e51b815260206004820152602c60248201527f43616e6e6f7420626f72726f77206d6f7265207468616e20636f6c6c6174657260448201526b185b081d1a1c995cda1bdb1960a21b60648201526084016103c8565b81471015610bc95760405162461bcd60e51b815260206004820152601c60248201527f4e6f7420656e6f7567682066756e647320696e20636f6e74726163740000000060448201526064016103c8565b600180820183905542600283015560038201805460ff19169091179055604051339083156108fc029084906000818181858888f19350505050158015610c13573d6000803e3d6000fd5b5060408051338152602081018490527fd5c776eab9418d89c040ffee59f2310d225f5ff682191bcee59b0413a7fd4835910160405180910390a1506105b76001600055565b6000811580610c65575082155b15610c7257506000610a4a565b6000610c926301e1338061049c610c8b6012600a6112e6565b8690610ffb565b90506000610cb461271061049c610cab6012600a6112e6565b60035490610ffb565b90506000610cd1610cc76012600a6112e6565b61049c8885610ffb565b90506000610cee610ce46012600a6112e6565b61049c8487610ffb565b90508015610d0457610d01816001610fef565b90505b9695505050505050565b610d16610f83565b336000908152600160205260409020600381015460ff16610d875760405162461bcd60e51b815260206004820152602560248201527f4e6f20616374697665206c6f616e20666f756e6420666f722074686973206164604482015264647265737360d81b60648201526084016103c8565b6000816001015411610dd15760405162461bcd60e51b8152602060048201526013602482015272125b9d985b1a59081b1bd85b88185b5bdd5b9d606a1b60448201526064016103c8565b6000610dea826002015442610fdc90919063ffffffff16565b90506000610dfc836001015483610c58565b90506000610e17828560010154610fef90919063ffffffff16565b905080341015610e2682611013565b610e2f34611013565b604051602001610e40929190611316565b60405160208183030381529060405290610e6d5760405162461bcd60e51b81526004016103c891906113a9565b506000610e7a3483610fdc565b855433600090815260016020819052604080832083815591820183905560028083018490556003909201805460ff191690559054905193945091926001600160a01b03909216916108fc86150291869190818181858888f19350505050158015610ee8573d6000803e3d6000fd5b506000610ef58284610fef565b90508015610f2c57604051339082156108fc029083906000818181858888f19350505050158015610f2a573d6000803e3d6000fd5b505b600187015460408051338152602081019290925281018690527fc7ce0a35f17b490de2a317e7fecb2cae86b1abffb03800b2f4928235213826989060600160405180910390a15050505050505061071f6001600055565b600260005403610fd55760405162461bcd60e51b815260206004820152601f60248201527f5265656e7472616e637947756172643a207265656e7472616e742063616c6c0060448201526064016103c8565b6002600055565b6000610fe882846113dc565b9392505050565b6000610fe882846113ef565b6000610fe88284611402565b6000610fe8828461142f565b60608160000361103a5750506040805180820190915260018152600360fc1b602082015290565b8160005b8115611064578061104e81611443565b915061105d9050600a8361142f565b915061103e565b60008167ffffffffffffffff81111561107f5761107f61145c565b6040519080825280601f01601f1916602001820160405280156110a9576020820181803683370190505b508593509050815b8315611116576110c2600a85611472565b6110cd9060306113ef565b60f81b826110da83611486565b925082815181106110ed576110ed61149d565b60200101906001600160f81b031916908160001a90535061110f600a8561142f565b93506110b1565b50949350505050565b80356001600160a01b038116811461113657600080fd5b919050565b60006020828403121561114d57600080fd5b610fe88261111f565b6000806040838503121561116957600080fd5b6111728361111f565b946020939093013593505050565b60006020828403121561119257600080fd5b5035919050565b600080604083850312156111ac57600080fd5b50508035926020909101359150565b602080825260149082015273139bc81858dd1a5d99481b1bd85b88199bdd5b9960621b604082015260600190565b634e487b7160e01b600052601160045260246000fd5b6001815b600184111561123a5780850481111561121e5761121e6111e9565b600184161561122c57908102905b60019390931c928002611203565b935093915050565b60008261125157506001610a4a565b8161125e57506000610a4a565b8160018114611274576002811461127e5761129a565b6001915050610a4a565b60ff84111561128f5761128f6111e9565b50506001821b610a4a565b5060208310610133831016604e8410600b84101617156112bd575081810a610a4a565b6112ca60001984846111ff565b80600019048211156112de576112de6111e9565b029392505050565b6000610fe88383611242565b60005b8381101561130d5781810151838201526020016112f5565b50506000910152565b7f496e73756666696369656e742072657061796d656e7420616d6f756e742e2052815268032b8bab4b932b21d160bd1b6020820152600083516113608160298501602088016112f2565b6b0103bb2b4961029b2b73a1d160a51b602991840191820152835161138c8160358401602088016112f2565b632077656960e01b60359290910191820152603901949350505050565b60208152600082518060208401526113c88160408501602087016112f2565b601f01601f19169190910160400192915050565b81810381811115610a4a57610a4a6111e9565b80820180821115610a4a57610a4a6111e9565b8082028115828204841417610a4a57610a4a6111e9565b634e487b7160e01b600052601260045260246000fd5b60008261143e5761143e611419565b500490565b600060018201611455576114556111e9565b5060010190565b634e487b7160e01b600052604160045260246000fd5b60008261148157611481611419565b500690565b600081611495576114956111e9565b506000190190565b634e487b7160e01b600052603260045260246000fdfea2646970667358221220f52987057d7661fe57fa2f6d033681b5642f07849eee161a22a6089b199e10fe64736f6c634300081c0033",
  "linkReferences": {},
  "deployedLinkReferences": {}
}