{
  "_format": "hh-sol-artifact-1",
  "contractName": "LendingContract",
  "sourceName": "contracts/LendingContract.sol",
  "abi": [
    {
      "inputs": [
        {
          "internalType": "uint256",
          "name": "_interestRate",
          "type": "uint256"
        },
        {
          "internalType": "uint256",
          "name": "_liquidationThreshold",
          "type": "uint256"
        }
      ],
      "stateMutability": "nonpayable",
      "type": "constructor"
    },
    {
      "anonymous": false,
      "inputs": [
        {
          "indexed": false,
          "internalType": "address",
          "name": "borrower",
          "type": "address"
        },
        {
          "indexed": false,
          "internalType": "uint256",
          "name": "amount",
          "type": "uint256"
        }
      ],
      "name": "CollateralDeposited",
      "type": "event"
    },
    {
      "anonymous": false,
      "inputs": [
        {
          "indexed": false,
          "internalType": "address",
          "name": "borrower",
          "type": "address"
        },
        {
          "indexed": false,
          "internalType": "uint256",
          "name": "amount",
          "type": "uint256"
        }
      ],
      "name": "CollateralWithdrawn",
      "type": "event"
    },
    {
      "anonymous": false,
      "inputs": [
        {
          "indexed": false,
          "internalType": "address",
          "name": "lender",
          "type": "address"
        },
        {
          "indexed": false,
          "internalType": "uint256",
          "name": "amount",
          "type": "uint256"
        }
      ],
      "name": "InterestDistributed",
      "type": "event"
    },
    {
      "anonymous": false,
      "inputs": [
        {
          "indexed": false,
          "internalType": "address",
          "name": "borrower",
          "type": "address"
        },
        {
          "indexed": false,
          "internalType": "uint256",
          "name": "collateralAmount",
          "type": "uint256"
        }
      ],
      "name": "Liquidated",
      "type": "event"
    },
    {
      "anonymous": false,
      "inputs": [
        {
          "indexed": false,
          "internalType": "address",
          "name": "lender",
          "type": "address"
        },
        {
          "indexed": false,
          "internalType": "uint256",
          "name": "amount",
          "type": "uint256"
        }
      ],
      "name": "LiquidityProvided",
      "type": "event"
    },
    {
      "anonymous": false,
      "inputs": [
        {
          "indexed": false,
          "internalType": "address",
          "name": "lender",
          "type": "address"
        },
        {
          "indexed": false,
          "internalType": "uint256",
          "name": "amount",
          "type": "uint256"
        }
      ],
      "name": "LiquidityWithdrawn",
      "type": "event"
    },
    {
      "anonymous": false,
      "inputs": [
        {
          "indexed": false,
          "internalType": "address",
          "name": "borrower",
          "type": "address"
        },
        {
          "indexed": false,
          "internalType": "uint256",
          "name": "amount",
          "type": "uint256"
        },
        {
          "indexed": false,
          "internalType": "uint256",
          "name": "interest",
          "type": "uint256"
        }
      ],
      "name": "LoanRepaid",
      "type": "event"
    },
    {
      "anonymous": false,
      "inputs": [
        {
          "indexed": false,
          "internalType": "address",
          "name": "borrower",
          "type": "address"
        },
        {
          "indexed": false,
          "internalType": "uint256",
          "name": "amount",
          "type": "uint256"
        }
      ],
      "name": "LoanTaken",
      "type": "event"
    },
    {
      "inputs": [],
      "name": "BUFFER_TIME",
      "outputs": [
        {
          "internalType": "uint256",
          "name": "",
          "type": "uint256"
        }
      ],
      "stateMutability": "view",
      "type": "function"
    },
    {
      "inputs": [],
      "name": "INTEREST_DECIMALS",
      "outputs": [
        {
          "internalType": "uint256",
          "name": "",
          "type": "uint256"
        }
      ],
      "stateMutability": "view",
      "type": "function"
    },
    {
      "inputs": [],
      "name": "SECONDS_IN_YEAR",
      "outputs": [
        {
          "internalType": "uint256",
          "name": "",
          "type": "uint256"
        }
      ],
      "stateMutability": "view",
      "type": "function"
    },
    {
      "inputs": [
        {
          "internalType": "uint256",
          "name": "amount",
          "type": "uint256"
        }
      ],
      "name": "borrow",
      "outputs": [],
      "stateMutability": "nonpayable",
      "type": "function"
    },
    {
      "inputs": [
        {
          "internalType": "uint256",
          "name": "principal",
          "type": "uint256"
        },
        {
          "internalType": "uint256",
          "name": "timeElapsed",
          "type": "uint256"
        }
      ],
      "name": "calculateInterest",
      "outputs": [
        {
          "internalType": "uint256",
          "name": "",
          "type": "uint256"
        }
      ],
      "stateMutability": "view",
      "type": "function"
    },
    {
      "inputs": [],
      "name": "depositCollateral",
      "outputs": [],
      "stateMutability": "payable",
      "type": "function"
    },
    {
      "inputs": [
        {
          "internalType": "address",
          "name": "borrower",
          "type": "address"
        }
      ],
      "name": "getCurrentInterest",
      "outputs": [
        {
          "internalType": "uint256",
          "name": "",
          "type": "uint256"
        }
      ],
      "stateMutability": "view",
      "type": "function"
    },
    {
      "inputs": [
        {
          "internalType": "address",
          "name": "_lender",
          "type": "address"
        }
      ],
      "name": "getLenderInterest",
      "outputs": [
        {
          "internalType": "uint256",
          "name": "",
          "type": "uint256"
        }
      ],
      "stateMutability": "view",
      "type": "function"
    },
    {
      "inputs": [
        {
          "internalType": "address",
          "name": "borrower",
          "type": "address"
        }
      ],
      "name": "getLoanDetails",
      "outputs": [
        {
          "internalType": "uint256",
          "name": "collateralAmount",
          "type": "uint256"
        },
        {
          "internalType": "uint256",
          "name": "loanAmount",
          "type": "uint256"
        },
        {
          "internalType": "uint256",
          "name": "timestamp",
          "type": "uint256"
        },
        {
          "internalType": "bool",
          "name": "active",
          "type": "bool"
        }
      ],
      "stateMutability": "view",
      "type": "function"
    },
    {
      "inputs": [
        {
          "internalType": "address",
          "name": "borrower",
          "type": "address"
        }
      ],
      "name": "getRequiredRepaymentAmount",
      "outputs": [
        {
          "internalType": "uint256",
          "name": "",
          "type": "uint256"
        }
      ],
      "stateMutability": "view",
      "type": "function"
    },
    {
      "inputs": [
        {
          "internalType": "address",
          "name": "borrower",
          "type": "address"
        },
        {
          "internalType": "uint256",
          "name": "customTimestamp",
          "type": "uint256"
        }
      ],
      "name": "getRequiredRepaymentAmountWithTimestamp",
      "outputs": [
        {
          "internalType": "uint256",
          "name": "",
          "type": "uint256"
        }
      ],
      "stateMutability": "view",
      "type": "function"
    },
    {
      "inputs": [],
      "name": "interestRate",
      "outputs": [
        {
          "internalType": "uint256",
          "name": "",
          "type": "uint256"
        }
      ],
      "stateMutability": "view",
      "type": "function"
    },
    {
      "inputs": [
        {
          "internalType": "address",
          "name": "",
          "type": "address"
        }
      ],
      "name": "lenderBalance",
      "outputs": [
        {
          "internalType": "uint256",
          "name": "",
          "type": "uint256"
        }
      ],
      "stateMutability": "view",
      "type": "function"
    },
    {
      "inputs": [
        {
          "internalType": "address",
          "name": "",
          "type": "address"
        }
      ],
      "name": "lenderInterestEarned",
      "outputs": [
        {
          "internalType": "uint256",
          "name": "",
          "type": "uint256"
        }
      ],
      "stateMutability": "view",
      "type": "function"
    },
    {
      "inputs": [
        {
          "internalType": "uint256",
          "name": "",
          "type": "uint256"
        }
      ],
      "name": "lenders",
      "outputs": [
        {
          "internalType": "address",
          "name": "",
          "type": "address"
        }
      ],
      "stateMutability": "view",
      "type": "function"
    },
    {
      "inputs": [
        {
          "internalType": "address",
          "name": "borrower",
          "type": "address"
        }
      ],
      "name": "liquidate",
      "outputs": [],
      "stateMutability": "nonpayable",
      "type": "function"
    },
    {
      "inputs": [],
      "name": "liquidationThreshold",
      "outputs": [
        {
          "internalType": "uint256",
          "name": "",
          "type": "uint256"
        }
      ],
      "stateMutability": "view",
      "type": "function"
    },
    {
      "inputs": [
        {
          "internalType": "address",
          "name": "",
          "type": "address"
        }
      ],
      "name": "loans",
      "outputs": [
        {
          "internalType": "uint256",
          "name": "collateralAmount",
          "type": "uint256"
        },
        {
          "internalType": "uint256",
          "name": "loanAmount",
          "type": "uint256"
        },
        {
          "internalType": "uint256",
          "name": "timestamp",
          "type": "uint256"
        },
        {
          "internalType": "bool",
          "name": "active",
          "type": "bool"
        }
      ],
      "stateMutability": "view",
      "type": "function"
    },
    {
      "inputs": [],
      "name": "provideLiquidity",
      "outputs": [],
      "stateMutability": "payable",
      "type": "function"
    },
    {
      "inputs": [],
      "name": "repayLoan",
      "outputs": [],
      "stateMutability": "payable",
      "type": "function"
    },
    {
      "inputs": [],
      "name": "totalPoolFunds",
      "outputs": [
        {
          "internalType": "uint256",
          "name": "",
          "type": "uint256"
        }
      ],
      "stateMutability": "view",
      "type": "function"
    },
    {
      "inputs": [],
      "name": "withdrawCollateral",
      "outputs": [],
      "stateMutability": "nonpayable",
      "type": "function"
    },
    {
      "inputs": [
        {
          "internalType": "uint256",
          "name": "amount",
          "type": "uint256"
        }
      ],
      "name": "withdrawLiquidity",
      "outputs": [],
      "stateMutability": "nonpayable",
      "type": "function"
    },
    {
      "stateMutability": "payable",
      "type": "receive"
    }
  ],
  "bytecode": "0x6080604052348015600f57600080fd5b50604051611776380380611776833981016040819052602c916044565b60016000818155600693909355600791909155556067565b60008060408385031215605657600080fd5b505080516020909101519092909150565b611700806100766000396000f3fe6080604052600436106101445760003560e01c80637c3a00fd116100b6578063c5ebeaec1161006f578063c5ebeaec1461039a578063e8a7da8e146103ba578063efdd7c0714610409578063f1139d0f14610429578063f20191fc1461043f578063f966ade71461046c57600080fd5b80637c3a00fd146102d7578063929eea21146102ed5780639aa9e84914610325578063a0a5905514610345578063ac64f52614610365578063bc7cf6e51461038557600080fd5b80634ff77632116101085780634ff77632146101fd57806359c153be146102335780635dcc93911461024857806360c97b22146102605780636f7581401461026857806373b4086b1461027057600080fd5b80630a861f2a14610150578063275972ca146101725780632f865568146101b25780633a5333bb146101d25780634031234c146101e757600080fd5b3661014b57005b600080fd5b34801561015c57600080fd5b5061017061016b366004611482565b610474565b005b34801561017e57600080fd5b5061019f61018d3660046114b7565b60026020526000908152604090205481565b6040519081526020015b60405180910390f35b3480156101be57600080fd5b506101706101cd3660046114b7565b6105af565b3480156101de57600080fd5b5061019f601281565b3480156101f357600080fd5b5061019f60075481565b34801561020957600080fd5b5061019f6102183660046114b7565b6001600160a01b031660009081526003602052604090205490565b34801561023f57600080fd5b50610170610770565b34801561025457600080fd5b5061019f6301e1338081565b6101706108d4565b6101706109fa565b34801561027c57600080fd5b506102b561028b3660046114b7565b60056020526000908152604090208054600182015460028301546003909301549192909160ff1684565b60408051948552602085019390935291830152151560608201526080016101a9565b3480156102e357600080fd5b5061019f60065481565b3480156102f957600080fd5b5061030d610308366004611482565b610b54565b6040516001600160a01b0390911681526020016101a9565b34801561033157600080fd5b5061019f6103403660046114b7565b610b7e565b34801561035157600080fd5b5061019f6103603660046114b7565b610c2a565b34801561037157600080fd5b5061019f6103803660046114d2565b610c97565b34801561039157600080fd5b5061019f603c81565b3480156103a657600080fd5b506101706103b5366004611482565b610d46565b3480156103c657600080fd5b506102b56103d53660046114b7565b6001600160a01b03166000908152600560205260409020805460018201546002830154600390930154919390929160ff1690565b34801561041557600080fd5b5061019f6104243660046114fc565b610f68565b34801561043557600080fd5b5061019f60015481565b34801561044b57600080fd5b5061019f61045a3660046114b7565b60036020526000908152604090205481565b61017061101e565b61047c6112d7565b8060015410156104d35760405162461bcd60e51b815260206004820152601760248201527f496e73756666696369656e7420706f6f6c2066756e647300000000000000000060448201526064015b60405180910390fd5b33600090815260036020526040812054906104ee8383611330565b3360009081526002602052604090205490915061050b9084611343565b3360009081526002602090815260408083209390935560039052908120556001546105369084611343565b600155604051339082156108fc029083906000818181858888f19350505050158015610566573d6000803e3d6000fd5b5060408051338152602081018390527fb1cce8684b4ffa8667b4577654e61ee3480d661ee9c27522ac80e211f6bd4d25910160405180910390a150506105ac6001600055565b50565b6105b76112d7565b6001600160a01b0381166000908152600560205260409020600381015460ff166106145760405162461bcd60e51b815260206004820152600e60248201526d27379030b1ba34bb32903637b0b760911b60448201526064016104ca565b600061062d82600201544261134390919063ffffffff16565b9050600061063f836001015483610f68565b9050600061065a82856001015461133090919063ffffffff16565b9050610680606461067a600754876000015461134f90919063ffffffff16565b9061135b565b8110156106d95760405162461bcd60e51b815260206004820152602160248201527f4c6f616e206e6f7420656c696769626c6520666f72206c69717569646174696f6044820152603760f91b60648201526084016104ca565b83546001600160a01b038616600090815260056020526040812081815560018082018390556002820192909255600301805460ff191690555461071c9082611330565b600155604080516001600160a01b0388168152602081018390527fa5ee7a2b0254fce91deed604506790ed7fa072d0b14cba4859c3bc8955b9caac910160405180910390a150505050506105ac6001600055565b6107786112d7565b33600090815260056020526040902080546107d55760405162461bcd60e51b815260206004820152601960248201527f4e6f20636f6c6c61746572616c20746f2077697468647261770000000000000060448201526064016104ca565b600381015460ff16156108365760405162461bcd60e51b8152602060048201526024808201527f43616e6e6f74207769746864726177207768696c65206c6f616e2069732061636044820152637469766560e01b60648201526084016104ca565b8054336000818152600560205260408082208281556001810183905560028101839055600301805460ff191690555183156108fc0291849190818181858888f1935050505015801561088c573d6000803e3d6000fd5b5060408051338152602081018390527fc30fcfbcaac9e0deffa719714eaa82396ff506a0d0d0eebe170830177288715d910160405180910390a150506108d26001600055565b565b6108dc6112d7565b600034116109245760405162461bcd60e51b815260206004820152601560248201527409aeae6e840e0e4deecd2c8ca40e6dedaca408aa89605b1b60448201526064016104ca565b33600090815260026020526040812054900361097d57600480546001810182556000919091527f8a35acfbc15ff81a39ae7d344fd709f28e8600b4aa8c65c6b64bfe7fe36bd19b0180546001600160a01b031916331790555b336000908152600260205260409020546109979034611330565b336000908152600260205260409020556001546109b49034611330565b600155604080513381523460208201527fccb2ae3a2936bf4c94fa4e12cdf0cdad6ed0e4888a044cef89afa60f2e4b92d391015b60405180910390a16108d26001600055565b610a026112d7565b60003411610a5e5760405162461bcd60e51b815260206004820152602360248201527f4d757374206465706f73697420736f6d652045544820617320636f6c6c6174656044820152621c985b60ea1b60648201526084016104ca565b3360009081526005602052604090206003015460ff1615610ac15760405162461bcd60e51b815260206004820152601a60248201527f416c72656164792068617320616e20616374697665206c6f616e00000000000060448201526064016104ca565b33600081815260056020818152604080842060038101805483516080810185523480825281870189815242838801908152606084018b81529a8c9052988852915185559051600185015595516002909301929092559451151560ff199091161790935582519384528301527fd7243f6f8212d5188fd054141cf6ea89cfc0d91facb8c3afe2f88a135848014291016109e8565b60048181548110610b6457600080fd5b6000918252602090912001546001600160a01b0316905081565b6001600160a01b0381166000908152600560205260408120600381015460ff16610bba5760405162461bcd60e51b81526004016104ca9061151e565b6000610bd382600201544261134390919063ffffffff16565b90506000610be5836001015483610f68565b90506000610c0082856001015461133090919063ffffffff16565b90506000610c138560010154603c610f68565b9050610c1f8282611330565b979650505050505050565b6001600160a01b0381166000908152600560205260408120600381015460ff16610c665760405162461bcd60e51b81526004016104ca9061151e565b6000610c7f82600201544261134390919063ffffffff16565b9050610c8f826001015482610f68565b949350505050565b6001600160a01b0382166000908152600560205260408120600381015460ff16610cd35760405162461bcd60e51b81526004016104ca9061151e565b6000610cec82600201548561134390919063ffffffff16565b90506000610cfe836001015483610f68565b90506000610d1982856001015461133090919063ffffffff16565b90506000610d2c8560010154603c610f68565b9050610d388282611330565b955050505050505b92915050565b610d4e6112d7565b3360009081526005602052604090208054610dab5760405162461bcd60e51b815260206004820152601760248201527f4e6f20636f6c6c61746572616c206465706f736974656400000000000000000060448201526064016104ca565b600381015460ff1615610df65760405162461bcd60e51b81526020600482015260136024820152724c6f616e20616c72656164792061637469766560681b60448201526064016104ca565b6007548154610e0b9160649161067a9161134f565b821115610e6f5760405162461bcd60e51b815260206004820152602c60248201527f43616e6e6f7420626f72726f77206d6f7265207468616e20636f6c6c6174657260448201526b185b081d1a1c995cda1bdb1960a21b60648201526084016104ca565b816001541015610ecc5760405162461bcd60e51b815260206004820152602260248201527f496e73756666696369656e742066756e647320696e206c656e64696e6720706f6044820152611bdb60f21b60648201526084016104ca565b600180820183905542600283015560038201805460ff19168217905554610ef39083611343565b600155604051339083156108fc029084906000818181858888f19350505050158015610f23573d6000803e3d6000fd5b5060408051338152602081018490527fd5c776eab9418d89c040ffee59f2310d225f5ff682191bcee59b0413a7fd4835910160405180910390a1506105ac6001600055565b6000811580610f75575082155b15610f8257506000610d40565b6000610fa26301e1338061067a610f9b6012600a611649565b869061134f565b90506000610fc461271061067a610fbb6012600a611649565b6006549061134f565b90506000610fe1610fd76012600a611649565b61067a888561134f565b90506000610ffe610ff46012600a611649565b61067a848761134f565b9050801561101457611011816001611330565b90505b9695505050505050565b6110266112d7565b336000908152600560205260409020600381015460ff166110975760405162461bcd60e51b815260206004820152602560248201527f4e6f20616374697665206c6f616e20666f756e6420666f722074686973206164604482015264647265737360d81b60648201526084016104ca565b60008160010154116110e15760405162461bcd60e51b8152602060048201526013602482015272125b9d985b1a59081b1bd85b88185b5bdd5b9d606a1b60448201526064016104ca565b60006110fa82600201544261134390919063ffffffff16565b9050600061110c836001015483610f68565b9050600061112782856001015461133090919063ffffffff16565b9050600034116111795760405162461bcd60e51b815260206004820152601b60248201527f4d7573742073656e642045544820746f207265706179206c6f616e000000000060448201526064016104ca565b803410156111c95760405162461bcd60e51b815260206004820152601b60248201527f496e73756666696369656e74207061796d656e7420616d6f756e74000000000060448201526064016104ca565b8354600180860154336000908152600560205260408120818155928301819055600283018190556003909201805460ff19169055908490829034861015611217576112143487611343565b90505b6001546112249083611330565b60018190556112339088611330565b60015561123f87611367565b600061124b8683611330565b9050801561128257604051339082156108fc029083906000818181858888f19350505050158015611280573d6000803e3d6000fd5b505b60408051338152602081018790529081018590527fc7ce0a35f17b490de2a317e7fecb2cae86b1abffb03800b2f4928235213826989060600160405180910390a1505050505050505050506108d26001600055565b6002600054036113295760405162461bcd60e51b815260206004820152601f60248201527f5265656e7472616e637947756172643a207265656e7472616e742063616c6c0060448201526064016104ca565b6002600055565b600061133c8284611655565b9392505050565b600061133c8284611668565b600061133c828461167b565b600061133c8284611692565b6000805b60045481101561147d5760006004828154811061138a5761138a6116b4565b60009182526020808320909101546001600160a01b0316808352600290915260409091205490915015611474576001546001600160a01b03821660009081526002602052604081205490916113e49161067a90889061134f565b6001600160a01b03831660009081526003602052604090205490915061140a9082611330565b6001600160a01b03831660009081526003602052604090205561142d8482611330565b604080516001600160a01b0385168152602081018490529195507fffbd5470d1efa00ab4b8be8ae04ba319ee7926ffe943a91b8af15bea044ceaf3910160405180910390a1505b5060010161136b565b505050565b60006020828403121561149457600080fd5b5035919050565b80356001600160a01b03811681146114b257600080fd5b919050565b6000602082840312156114c957600080fd5b61133c8261149b565b600080604083850312156114e557600080fd5b6114ee8361149b565b946020939093013593505050565b6000806040838503121561150f57600080fd5b50508035926020909101359150565b602080825260149082015273139bc81858dd1a5d99481b1bd85b88199bdd5b9960621b604082015260600190565b634e487b7160e01b600052601160045260246000fd5b6001815b600184111561159d578085048111156115815761158161154c565b600184161561158f57908102905b60019390931c928002611566565b935093915050565b6000826115b457506001610d40565b816115c157506000610d40565b81600181146115d757600281146115e1576115fd565b6001915050610d40565b60ff8411156115f2576115f261154c565b50506001821b610d40565b5060208310610133831016604e8410600b8410161715611620575081810a610d40565b61162d6000198484611562565b80600019048211156116415761164161154c565b029392505050565b600061133c83836115a5565b80820180821115610d4057610d4061154c565b81810381811115610d4057610d4061154c565b8082028115828204841417610d4057610d4061154c565b6000826116af57634e487b7160e01b600052601260045260246000fd5b500490565b634e487b7160e01b600052603260045260246000fdfea2646970667358221220ec214dc80c15d567aee3bc4b0204c56f52735c357d9c1d1a1f6e944df153ddbd64736f6c634300081c0033",
  "linkReferences": {},
  "deployedLinkReferences": {}
}