{
  "_format": "hh-sol-artifact-1",
  "contractName": "LendingContract",
  "sourceName": "contracts/LendingContract.sol",
  "abi": [
    {
      "inputs": [
        {
          "internalType": "uint256",
          "name": "_interestRate",
          "type": "uint256"
        },
        {
          "internalType": "uint256",
          "name": "_liquidationThreshold",
          "type": "uint256"
        }
      ],
      "stateMutability": "nonpayable",
      "type": "constructor"
    },
    {
      "anonymous": false,
      "inputs": [
        {
          "indexed": false,
          "internalType": "address",
          "name": "borrower",
          "type": "address"
        },
        {
          "indexed": false,
          "internalType": "uint256",
          "name": "amount",
          "type": "uint256"
        }
      ],
      "name": "CollateralDeposited",
      "type": "event"
    },
    {
      "anonymous": false,
      "inputs": [
        {
          "indexed": false,
          "internalType": "address",
          "name": "borrower",
          "type": "address"
        },
        {
          "indexed": false,
          "internalType": "uint256",
          "name": "amount",
          "type": "uint256"
        }
      ],
      "name": "CollateralWithdrawn",
      "type": "event"
    },
    {
      "anonymous": false,
      "inputs": [
        {
          "indexed": false,
          "internalType": "address",
          "name": "lender",
          "type": "address"
        },
        {
          "indexed": false,
          "internalType": "uint256",
          "name": "amount",
          "type": "uint256"
        }
      ],
      "name": "InterestDistributed",
      "type": "event"
    },
    {
      "anonymous": false,
      "inputs": [
        {
          "indexed": false,
          "internalType": "address",
          "name": "borrower",
          "type": "address"
        },
        {
          "indexed": false,
          "internalType": "uint256",
          "name": "collateralAmount",
          "type": "uint256"
        }
      ],
      "name": "Liquidated",
      "type": "event"
    },
    {
      "anonymous": false,
      "inputs": [
        {
          "indexed": false,
          "internalType": "address",
          "name": "lender",
          "type": "address"
        },
        {
          "indexed": false,
          "internalType": "uint256",
          "name": "amount",
          "type": "uint256"
        }
      ],
      "name": "LiquidityProvided",
      "type": "event"
    },
    {
      "anonymous": false,
      "inputs": [
        {
          "indexed": false,
          "internalType": "address",
          "name": "lender",
          "type": "address"
        },
        {
          "indexed": false,
          "internalType": "uint256",
          "name": "amount",
          "type": "uint256"
        }
      ],
      "name": "LiquidityWithdrawn",
      "type": "event"
    },
    {
      "anonymous": false,
      "inputs": [
        {
          "indexed": false,
          "internalType": "address",
          "name": "borrower",
          "type": "address"
        },
        {
          "indexed": false,
          "internalType": "uint256",
          "name": "amount",
          "type": "uint256"
        },
        {
          "indexed": false,
          "internalType": "uint256",
          "name": "interest",
          "type": "uint256"
        }
      ],
      "name": "LoanRepaid",
      "type": "event"
    },
    {
      "anonymous": false,
      "inputs": [
        {
          "indexed": false,
          "internalType": "address",
          "name": "borrower",
          "type": "address"
        },
        {
          "indexed": false,
          "internalType": "uint256",
          "name": "amount",
          "type": "uint256"
        }
      ],
      "name": "LoanTaken",
      "type": "event"
    },
    {
      "inputs": [],
      "name": "BUFFER_TIME",
      "outputs": [
        {
          "internalType": "uint256",
          "name": "",
          "type": "uint256"
        }
      ],
      "stateMutability": "view",
      "type": "function"
    },
    {
      "inputs": [],
      "name": "INTEREST_DECIMALS",
      "outputs": [
        {
          "internalType": "uint256",
          "name": "",
          "type": "uint256"
        }
      ],
      "stateMutability": "view",
      "type": "function"
    },
    {
      "inputs": [],
      "name": "SECONDS_IN_YEAR",
      "outputs": [
        {
          "internalType": "uint256",
          "name": "",
          "type": "uint256"
        }
      ],
      "stateMutability": "view",
      "type": "function"
    },
    {
      "inputs": [
        {
          "internalType": "uint256",
          "name": "amount",
          "type": "uint256"
        }
      ],
      "name": "borrow",
      "outputs": [],
      "stateMutability": "nonpayable",
      "type": "function"
    },
    {
      "inputs": [
        {
          "internalType": "uint256",
          "name": "principal",
          "type": "uint256"
        },
        {
          "internalType": "uint256",
          "name": "timeElapsed",
          "type": "uint256"
        }
      ],
      "name": "calculateInterest",
      "outputs": [
        {
          "internalType": "uint256",
          "name": "",
          "type": "uint256"
        }
      ],
      "stateMutability": "view",
      "type": "function"
    },
    {
      "inputs": [],
      "name": "depositCollateral",
      "outputs": [],
      "stateMutability": "payable",
      "type": "function"
    },
    {
      "inputs": [
        {
          "internalType": "address",
          "name": "borrower",
          "type": "address"
        }
      ],
      "name": "getCurrentInterest",
      "outputs": [
        {
          "internalType": "uint256",
          "name": "",
          "type": "uint256"
        }
      ],
      "stateMutability": "view",
      "type": "function"
    },
    {
      "inputs": [
        {
          "internalType": "address",
          "name": "_lender",
          "type": "address"
        }
      ],
      "name": "getLenderInterest",
      "outputs": [
        {
          "internalType": "uint256",
          "name": "",
          "type": "uint256"
        }
      ],
      "stateMutability": "view",
      "type": "function"
    },
    {
      "inputs": [
        {
          "internalType": "address",
          "name": "borrower",
          "type": "address"
        }
      ],
      "name": "getLoanDetails",
      "outputs": [
        {
          "internalType": "uint256",
          "name": "collateralAmount",
          "type": "uint256"
        },
        {
          "internalType": "uint256",
          "name": "loanAmount",
          "type": "uint256"
        },
        {
          "internalType": "uint256",
          "name": "timestamp",
          "type": "uint256"
        },
        {
          "internalType": "bool",
          "name": "active",
          "type": "bool"
        }
      ],
      "stateMutability": "view",
      "type": "function"
    },
    {
      "inputs": [
        {
          "internalType": "address",
          "name": "borrower",
          "type": "address"
        }
      ],
      "name": "getRequiredRepaymentAmount",
      "outputs": [
        {
          "internalType": "uint256",
          "name": "",
          "type": "uint256"
        }
      ],
      "stateMutability": "view",
      "type": "function"
    },
    {
      "inputs": [
        {
          "internalType": "address",
          "name": "borrower",
          "type": "address"
        },
        {
          "internalType": "uint256",
          "name": "customTimestamp",
          "type": "uint256"
        }
      ],
      "name": "getRequiredRepaymentAmountWithTimestamp",
      "outputs": [
        {
          "internalType": "uint256",
          "name": "",
          "type": "uint256"
        }
      ],
      "stateMutability": "view",
      "type": "function"
    },
    {
      "inputs": [],
      "name": "interestRate",
      "outputs": [
        {
          "internalType": "uint256",
          "name": "",
          "type": "uint256"
        }
      ],
      "stateMutability": "view",
      "type": "function"
    },
    {
      "inputs": [
        {
          "internalType": "address",
          "name": "",
          "type": "address"
        }
      ],
      "name": "lenderBalance",
      "outputs": [
        {
          "internalType": "uint256",
          "name": "",
          "type": "uint256"
        }
      ],
      "stateMutability": "view",
      "type": "function"
    },
    {
      "inputs": [
        {
          "internalType": "address",
          "name": "",
          "type": "address"
        }
      ],
      "name": "lenderInterestEarned",
      "outputs": [
        {
          "internalType": "uint256",
          "name": "",
          "type": "uint256"
        }
      ],
      "stateMutability": "view",
      "type": "function"
    },
    {
      "inputs": [
        {
          "internalType": "uint256",
          "name": "",
          "type": "uint256"
        }
      ],
      "name": "lenders",
      "outputs": [
        {
          "internalType": "address",
          "name": "",
          "type": "address"
        }
      ],
      "stateMutability": "view",
      "type": "function"
    },
    {
      "inputs": [
        {
          "internalType": "address",
          "name": "borrower",
          "type": "address"
        }
      ],
      "name": "liquidate",
      "outputs": [],
      "stateMutability": "nonpayable",
      "type": "function"
    },
    {
      "inputs": [],
      "name": "liquidationThreshold",
      "outputs": [
        {
          "internalType": "uint256",
          "name": "",
          "type": "uint256"
        }
      ],
      "stateMutability": "view",
      "type": "function"
    },
    {
      "inputs": [
        {
          "internalType": "address",
          "name": "",
          "type": "address"
        }
      ],
      "name": "loans",
      "outputs": [
        {
          "internalType": "uint256",
          "name": "collateralAmount",
          "type": "uint256"
        },
        {
          "internalType": "uint256",
          "name": "loanAmount",
          "type": "uint256"
        },
        {
          "internalType": "uint256",
          "name": "timestamp",
          "type": "uint256"
        },
        {
          "internalType": "bool",
          "name": "active",
          "type": "bool"
        }
      ],
      "stateMutability": "view",
      "type": "function"
    },
    {
      "inputs": [],
      "name": "provideLiquidity",
      "outputs": [],
      "stateMutability": "payable",
      "type": "function"
    },
    {
      "inputs": [],
      "name": "repayLoan",
      "outputs": [],
      "stateMutability": "payable",
      "type": "function"
    },
    {
      "inputs": [],
      "name": "totalPoolFunds",
      "outputs": [
        {
          "internalType": "uint256",
          "name": "",
          "type": "uint256"
        }
      ],
      "stateMutability": "view",
      "type": "function"
    },
    {
      "inputs": [],
      "name": "withdrawCollateral",
      "outputs": [],
      "stateMutability": "nonpayable",
      "type": "function"
    },
    {
      "inputs": [
        {
          "internalType": "uint256",
          "name": "amount",
          "type": "uint256"
        }
      ],
      "name": "withdrawLiquidity",
      "outputs": [],
      "stateMutability": "nonpayable",
      "type": "function"
    },
    {
      "stateMutability": "payable",
      "type": "receive"
    }
  ],
  "bytecode": "0x6080604052348015600f57600080fd5b5060405161180d38038061180d833981016040819052602c916044565b60016000818155600693909355600791909155556067565b60008060408385031215605657600080fd5b505080516020909101519092909150565b611797806100766000396000f3fe6080604052600436106101445760003560e01c80637c3a00fd116100b6578063c5ebeaec1161006f578063c5ebeaec1461039a578063e8a7da8e146103ba578063efdd7c0714610409578063f1139d0f14610429578063f20191fc1461043f578063f966ade71461046c57600080fd5b80637c3a00fd146102d7578063929eea21146102ed5780639aa9e84914610325578063a0a5905514610345578063ac64f52614610365578063bc7cf6e51461038557600080fd5b80634ff77632116101085780634ff77632146101fd57806359c153be146102335780635dcc93911461024857806360c97b22146102605780636f7581401461026857806373b4086b1461027057600080fd5b80630a861f2a14610150578063275972ca146101725780632f865568146101b25780633a5333bb146101d25780634031234c146101e757600080fd5b3661014b57005b600080fd5b34801561015c57600080fd5b5061017061016b366004611519565b610474565b005b34801561017e57600080fd5b5061019f61018d36600461154e565b60026020526000908152604090205481565b6040519081526020015b60405180910390f35b3480156101be57600080fd5b506101706101cd36600461154e565b610654565b3480156101de57600080fd5b5061019f601281565b3480156101f357600080fd5b5061019f60075481565b34801561020957600080fd5b5061019f61021836600461154e565b6001600160a01b031660009081526003602052604090205490565b34801561023f57600080fd5b50610170610815565b34801561025457600080fd5b5061019f6301e1338081565b610170610979565b610170610a9f565b34801561027c57600080fd5b506102b561028b36600461154e565b60056020526000908152604090208054600182015460028301546003909301549192909160ff1684565b60408051948552602085019390935291830152151560608201526080016101a9565b3480156102e357600080fd5b5061019f60065481565b3480156102f957600080fd5b5061030d610308366004611519565b610bf9565b6040516001600160a01b0390911681526020016101a9565b34801561033157600080fd5b5061019f61034036600461154e565b610c23565b34801561035157600080fd5b5061019f61036036600461154e565b610ccf565b34801561037157600080fd5b5061019f610380366004611569565b610d3c565b34801561039157600080fd5b5061019f603c81565b3480156103a657600080fd5b506101706103b5366004611519565b610deb565b3480156103c657600080fd5b506102b56103d536600461154e565b6001600160a01b03166000908152600560205260409020805460018201546002830154600390930154919390929160ff1690565b34801561041557600080fd5b5061019f610424366004611593565b61100d565b34801561043557600080fd5b5061019f60015481565b34801561044b57600080fd5b5061019f61045a36600461154e565b60036020526000908152604090205481565b6101706110c3565b61047c61136e565b336000908152600260205260409020548111156104d75760405162461bcd60e51b8152602060048201526014602482015273496e73756666696369656e742062616c616e636560601b60448201526064015b60405180910390fd5b8060015410156105295760405162461bcd60e51b815260206004820152601760248201527f496e73756666696369656e7420706f6f6c2066756e647300000000000000000060448201526064016104ce565b336000908152600360205260408120549061054483836113c7565b9050804710156105965760405162461bcd60e51b815260206004820152601d60248201527f496e73756666696369656e7420636f6e74726163742062616c616e636500000060448201526064016104ce565b336000908152600260205260409020546105b090846113da565b3360009081526002602090815260408083209390935560039052908120556001546105db90846113da565b600155604051339082156108fc029083906000818181858888f1935050505015801561060b573d6000803e3d6000fd5b5060408051338152602081018390527fb1cce8684b4ffa8667b4577654e61ee3480d661ee9c27522ac80e211f6bd4d25910160405180910390a150506106516001600055565b50565b61065c61136e565b6001600160a01b0381166000908152600560205260409020600381015460ff166106b95760405162461bcd60e51b815260206004820152600e60248201526d27379030b1ba34bb32903637b0b760911b60448201526064016104ce565b60006106d28260020154426113da90919063ffffffff16565b905060006106e483600101548361100d565b905060006106ff8285600101546113c790919063ffffffff16565b9050610725606461071f60075487600001546113e690919063ffffffff16565b906113f2565b81101561077e5760405162461bcd60e51b815260206004820152602160248201527f4c6f616e206e6f7420656c696769626c6520666f72206c69717569646174696f6044820152603760f91b60648201526084016104ce565b83546001600160a01b038616600090815260056020526040812081815560018082018390556002820192909255600301805460ff19169055546107c190826113c7565b600155604080516001600160a01b0388168152602081018390527fa5ee7a2b0254fce91deed604506790ed7fa072d0b14cba4859c3bc8955b9caac910160405180910390a150505050506106516001600055565b61081d61136e565b336000908152600560205260409020805461087a5760405162461bcd60e51b815260206004820152601960248201527f4e6f20636f6c6c61746572616c20746f2077697468647261770000000000000060448201526064016104ce565b600381015460ff16156108db5760405162461bcd60e51b8152602060048201526024808201527f43616e6e6f74207769746864726177207768696c65206c6f616e2069732061636044820152637469766560e01b60648201526084016104ce565b8054336000818152600560205260408082208281556001810183905560028101839055600301805460ff191690555183156108fc0291849190818181858888f19350505050158015610931573d6000803e3d6000fd5b5060408051338152602081018390527fc30fcfbcaac9e0deffa719714eaa82396ff506a0d0d0eebe170830177288715d910160405180910390a150506109776001600055565b565b61098161136e565b600034116109c95760405162461bcd60e51b815260206004820152601560248201527409aeae6e840e0e4deecd2c8ca40e6dedaca408aa89605b1b60448201526064016104ce565b336000908152600260205260408120549003610a2257600480546001810182556000919091527f8a35acfbc15ff81a39ae7d344fd709f28e8600b4aa8c65c6b64bfe7fe36bd19b0180546001600160a01b031916331790555b33600090815260026020526040902054610a3c90346113c7565b33600090815260026020526040902055600154610a5990346113c7565b600155604080513381523460208201527fccb2ae3a2936bf4c94fa4e12cdf0cdad6ed0e4888a044cef89afa60f2e4b92d391015b60405180910390a16109776001600055565b610aa761136e565b60003411610b035760405162461bcd60e51b815260206004820152602360248201527f4d757374206465706f73697420736f6d652045544820617320636f6c6c6174656044820152621c985b60ea1b60648201526084016104ce565b3360009081526005602052604090206003015460ff1615610b665760405162461bcd60e51b815260206004820152601a60248201527f416c72656164792068617320616e20616374697665206c6f616e00000000000060448201526064016104ce565b33600081815260056020818152604080842060038101805483516080810185523480825281870189815242838801908152606084018b81529a8c9052988852915185559051600185015595516002909301929092559451151560ff199091161790935582519384528301527fd7243f6f8212d5188fd054141cf6ea89cfc0d91facb8c3afe2f88a13584801429101610a8d565b60048181548110610c0957600080fd5b6000918252602090912001546001600160a01b0316905081565b6001600160a01b0381166000908152600560205260408120600381015460ff16610c5f5760405162461bcd60e51b81526004016104ce906115b5565b6000610c788260020154426113da90919063ffffffff16565b90506000610c8a83600101548361100d565b90506000610ca58285600101546113c790919063ffffffff16565b90506000610cb88560010154603c61100d565b9050610cc482826113c7565b979650505050505050565b6001600160a01b0381166000908152600560205260408120600381015460ff16610d0b5760405162461bcd60e51b81526004016104ce906115b5565b6000610d248260020154426113da90919063ffffffff16565b9050610d3482600101548261100d565b949350505050565b6001600160a01b0382166000908152600560205260408120600381015460ff16610d785760405162461bcd60e51b81526004016104ce906115b5565b6000610d918260020154856113da90919063ffffffff16565b90506000610da383600101548361100d565b90506000610dbe8285600101546113c790919063ffffffff16565b90506000610dd18560010154603c61100d565b9050610ddd82826113c7565b955050505050505b92915050565b610df361136e565b3360009081526005602052604090208054610e505760405162461bcd60e51b815260206004820152601760248201527f4e6f20636f6c6c61746572616c206465706f736974656400000000000000000060448201526064016104ce565b600381015460ff1615610e9b5760405162461bcd60e51b81526020600482015260136024820152724c6f616e20616c72656164792061637469766560681b60448201526064016104ce565b6007548154610eb09160649161071f916113e6565b821115610f145760405162461bcd60e51b815260206004820152602c60248201527f43616e6e6f7420626f72726f77206d6f7265207468616e20636f6c6c6174657260448201526b185b081d1a1c995cda1bdb1960a21b60648201526084016104ce565b816001541015610f715760405162461bcd60e51b815260206004820152602260248201527f496e73756666696369656e742066756e647320696e206c656e64696e6720706f6044820152611bdb60f21b60648201526084016104ce565b600180820183905542600283015560038201805460ff19168217905554610f9890836113da565b600155604051339083156108fc029084906000818181858888f19350505050158015610fc8573d6000803e3d6000fd5b5060408051338152602081018490527fd5c776eab9418d89c040ffee59f2310d225f5ff682191bcee59b0413a7fd4835910160405180910390a1506106516001600055565b600081158061101a575082155b1561102757506000610de5565b60006110476301e1338061071f6110406012600a6116e0565b86906113e6565b9050600061106961271061071f6110606012600a6116e0565b600654906113e6565b9050600061108661107c6012600a6116e0565b61071f88856113e6565b905060006110a36110996012600a6116e0565b61071f84876113e6565b905080156110b9576110b68160016113c7565b90505b9695505050505050565b6110cb61136e565b336000908152600560205260409020600381015460ff1661113c5760405162461bcd60e51b815260206004820152602560248201527f4e6f20616374697665206c6f616e20666f756e6420666f722074686973206164604482015264647265737360d81b60648201526084016104ce565b60008160010154116111865760405162461bcd60e51b8152602060048201526013602482015272125b9d985b1a59081b1bd85b88185b5bdd5b9d606a1b60448201526064016104ce565b600061119f8260020154426113da90919063ffffffff16565b905060006111b183600101548361100d565b905060006111cc8285600101546113c790919063ffffffff16565b90506000341161121e5760405162461bcd60e51b815260206004820152601b60248201527f4d7573742073656e642045544820746f207265706179206c6f616e000000000060448201526064016104ce565b8034101561126e5760405162461bcd60e51b815260206004820152601b60248201527f496e73756666696369656e74207061796d656e7420616d6f756e74000000000060448201526064016104ce565b8354600180860154336000908152600560205260408120818155928301819055600283018190556003909201805460ff19169055908490348510156112ba576112b734866113da565b90505b60018089015490546112cb916113c7565b6001556112d7866113fe565b60006112e385836113c7565b9050801561131a57604051339082156108fc029083906000818181858888f19350505050158015611318573d6000803e3d6000fd5b505b60408051338152602081018690529081018490527fc7ce0a35f17b490de2a317e7fecb2cae86b1abffb03800b2f4928235213826989060600160405180910390a15050505050505050506109776001600055565b6002600054036113c05760405162461bcd60e51b815260206004820152601f60248201527f5265656e7472616e637947756172643a207265656e7472616e742063616c6c0060448201526064016104ce565b6002600055565b60006113d382846116ec565b9392505050565b60006113d382846116ff565b60006113d38284611712565b60006113d38284611729565b6000805b600454811015611514576000600482815481106114215761142161174b565b60009182526020808320909101546001600160a01b031680835260029091526040909120549091501561150b576001546001600160a01b038216600090815260026020526040812054909161147b9161071f9088906113e6565b6001600160a01b0383166000908152600360205260409020549091506114a190826113c7565b6001600160a01b0383166000908152600360205260409020556114c484826113c7565b604080516001600160a01b0385168152602081018490529195507fffbd5470d1efa00ab4b8be8ae04ba319ee7926ffe943a91b8af15bea044ceaf3910160405180910390a1505b50600101611402565b505050565b60006020828403121561152b57600080fd5b5035919050565b80356001600160a01b038116811461154957600080fd5b919050565b60006020828403121561156057600080fd5b6113d382611532565b6000806040838503121561157c57600080fd5b61158583611532565b946020939093013593505050565b600080604083850312156115a657600080fd5b50508035926020909101359150565b602080825260149082015273139bc81858dd1a5d99481b1bd85b88199bdd5b9960621b604082015260600190565b634e487b7160e01b600052601160045260246000fd5b6001815b600184111561163457808504811115611618576116186115e3565b600184161561162657908102905b60019390931c9280026115fd565b935093915050565b60008261164b57506001610de5565b8161165857506000610de5565b816001811461166e576002811461167857611694565b6001915050610de5565b60ff841115611689576116896115e3565b50506001821b610de5565b5060208310610133831016604e8410600b84101617156116b7575081810a610de5565b6116c460001984846115f9565b80600019048211156116d8576116d86115e3565b029392505050565b60006113d3838361163c565b80820180821115610de557610de56115e3565b81810381811115610de557610de56115e3565b8082028115828204841417610de557610de56115e3565b60008261174657634e487b7160e01b600052601260045260246000fd5b500490565b634e487b7160e01b600052603260045260246000fdfea26469706673582212204658d2219f708027994ef6d138e881e5fb3a66549d383c527cdb238f6fffa9f564736f6c634300081c0033",
  "linkReferences": {},
  "deployedLinkReferences": {}
}