{
  "_format": "hh-sol-artifact-1",
  "contractName": "LendingContract",
  "sourceName": "contracts/LendingContract.sol",
  "abi": [
    {
      "inputs": [
        {
          "internalType": "uint256",
          "name": "_interestRate",
          "type": "uint256"
        },
        {
          "internalType": "uint256",
          "name": "_liquidationThreshold",
          "type": "uint256"
        }
      ],
      "stateMutability": "payable",
      "type": "constructor"
    },
    {
      "anonymous": false,
      "inputs": [
        {
          "indexed": false,
          "internalType": "address",
          "name": "borrower",
          "type": "address"
        },
        {
          "indexed": false,
          "internalType": "uint256",
          "name": "amount",
          "type": "uint256"
        }
      ],
      "name": "CollateralDeposited",
      "type": "event"
    },
    {
      "anonymous": false,
      "inputs": [
        {
          "indexed": false,
          "internalType": "address",
          "name": "borrower",
          "type": "address"
        },
        {
          "indexed": false,
          "internalType": "uint256",
          "name": "amount",
          "type": "uint256"
        }
      ],
      "name": "CollateralWithdrawn",
      "type": "event"
    },
    {
      "anonymous": false,
      "inputs": [
        {
          "indexed": false,
          "internalType": "address",
          "name": "borrower",
          "type": "address"
        },
        {
          "indexed": false,
          "internalType": "uint256",
          "name": "collateralAmount",
          "type": "uint256"
        }
      ],
      "name": "Liquidated",
      "type": "event"
    },
    {
      "anonymous": false,
      "inputs": [
        {
          "indexed": false,
          "internalType": "address",
          "name": "borrower",
          "type": "address"
        },
        {
          "indexed": false,
          "internalType": "uint256",
          "name": "amount",
          "type": "uint256"
        },
        {
          "indexed": false,
          "internalType": "uint256",
          "name": "interest",
          "type": "uint256"
        }
      ],
      "name": "LoanRepaid",
      "type": "event"
    },
    {
      "anonymous": false,
      "inputs": [
        {
          "indexed": false,
          "internalType": "address",
          "name": "borrower",
          "type": "address"
        },
        {
          "indexed": false,
          "internalType": "uint256",
          "name": "amount",
          "type": "uint256"
        }
      ],
      "name": "LoanTaken",
      "type": "event"
    },
    {
      "inputs": [],
      "name": "BUFFER_TIME",
      "outputs": [
        {
          "internalType": "uint256",
          "name": "",
          "type": "uint256"
        }
      ],
      "stateMutability": "view",
      "type": "function"
    },
    {
      "inputs": [],
      "name": "INTEREST_DECIMALS",
      "outputs": [
        {
          "internalType": "uint256",
          "name": "",
          "type": "uint256"
        }
      ],
      "stateMutability": "view",
      "type": "function"
    },
    {
      "inputs": [],
      "name": "SECONDS_IN_YEAR",
      "outputs": [
        {
          "internalType": "uint256",
          "name": "",
          "type": "uint256"
        }
      ],
      "stateMutability": "view",
      "type": "function"
    },
    {
      "inputs": [
        {
          "internalType": "uint256",
          "name": "amount",
          "type": "uint256"
        }
      ],
      "name": "borrow",
      "outputs": [],
      "stateMutability": "nonpayable",
      "type": "function"
    },
    {
      "inputs": [
        {
          "internalType": "uint256",
          "name": "principal",
          "type": "uint256"
        },
        {
          "internalType": "uint256",
          "name": "timeElapsed",
          "type": "uint256"
        }
      ],
      "name": "calculateInterest",
      "outputs": [
        {
          "internalType": "uint256",
          "name": "",
          "type": "uint256"
        }
      ],
      "stateMutability": "view",
      "type": "function"
    },
    {
      "inputs": [],
      "name": "depositCollateral",
      "outputs": [],
      "stateMutability": "payable",
      "type": "function"
    },
    {
      "inputs": [
        {
          "internalType": "address",
          "name": "borrower",
          "type": "address"
        }
      ],
      "name": "getCurrentInterest",
      "outputs": [
        {
          "internalType": "uint256",
          "name": "",
          "type": "uint256"
        }
      ],
      "stateMutability": "view",
      "type": "function"
    },
    {
      "inputs": [
        {
          "internalType": "address",
          "name": "borrower",
          "type": "address"
        }
      ],
      "name": "getLoanDetails",
      "outputs": [
        {
          "internalType": "uint256",
          "name": "collateralAmount",
          "type": "uint256"
        },
        {
          "internalType": "uint256",
          "name": "loanAmount",
          "type": "uint256"
        },
        {
          "internalType": "uint256",
          "name": "timestamp",
          "type": "uint256"
        },
        {
          "internalType": "bool",
          "name": "active",
          "type": "bool"
        }
      ],
      "stateMutability": "view",
      "type": "function"
    },
    {
      "inputs": [
        {
          "internalType": "address",
          "name": "borrower",
          "type": "address"
        }
      ],
      "name": "getRequiredRepaymentAmount",
      "outputs": [
        {
          "internalType": "uint256",
          "name": "",
          "type": "uint256"
        }
      ],
      "stateMutability": "view",
      "type": "function"
    },
    {
      "inputs": [
        {
          "internalType": "address",
          "name": "borrower",
          "type": "address"
        },
        {
          "internalType": "uint256",
          "name": "customTimestamp",
          "type": "uint256"
        }
      ],
      "name": "getRequiredRepaymentAmountWithTimestamp",
      "outputs": [
        {
          "internalType": "uint256",
          "name": "",
          "type": "uint256"
        }
      ],
      "stateMutability": "view",
      "type": "function"
    },
    {
      "inputs": [],
      "name": "interestRate",
      "outputs": [
        {
          "internalType": "uint256",
          "name": "",
          "type": "uint256"
        }
      ],
      "stateMutability": "view",
      "type": "function"
    },
    {
      "inputs": [],
      "name": "lender",
      "outputs": [
        {
          "internalType": "address",
          "name": "",
          "type": "address"
        }
      ],
      "stateMutability": "view",
      "type": "function"
    },
    {
      "inputs": [
        {
          "internalType": "address",
          "name": "borrower",
          "type": "address"
        }
      ],
      "name": "liquidate",
      "outputs": [],
      "stateMutability": "nonpayable",
      "type": "function"
    },
    {
      "inputs": [],
      "name": "liquidationThreshold",
      "outputs": [
        {
          "internalType": "uint256",
          "name": "",
          "type": "uint256"
        }
      ],
      "stateMutability": "view",
      "type": "function"
    },
    {
      "inputs": [
        {
          "internalType": "address",
          "name": "",
          "type": "address"
        }
      ],
      "name": "loans",
      "outputs": [
        {
          "internalType": "uint256",
          "name": "collateralAmount",
          "type": "uint256"
        },
        {
          "internalType": "uint256",
          "name": "loanAmount",
          "type": "uint256"
        },
        {
          "internalType": "uint256",
          "name": "timestamp",
          "type": "uint256"
        },
        {
          "internalType": "bool",
          "name": "active",
          "type": "bool"
        }
      ],
      "stateMutability": "view",
      "type": "function"
    },
    {
      "inputs": [],
      "name": "repayLoan",
      "outputs": [],
      "stateMutability": "payable",
      "type": "function"
    },
    {
      "inputs": [],
      "name": "withdrawCollateral",
      "outputs": [],
      "stateMutability": "nonpayable",
      "type": "function"
    },
    {
      "stateMutability": "payable",
      "type": "receive"
    }
  ],
  "bytecode": "0x608060405260405161143b38038061143b8339810160408190526020916044565b6001600055600280546001600160a01b031916331790556003919091556004556067565b60008060408385031215605657600080fd5b505080516020909101519092909150565b6113c5806100766000396000f3fe6080604052600436106101025760003560e01c80639aa9e84911610095578063bcead63e11610064578063bcead63e14610296578063c5ebeaec146102ce578063e8a7da8e146102ee578063efdd7c071461033e578063f966ade71461035e57600080fd5b80639aa9e84914610221578063a0a5905514610241578063ac64f52614610261578063bc7cf6e51461028157600080fd5b80635dcc9391116100d15780635dcc9391146101835780636f7581401461019b57806373b4086b146101a35780637c3a00fd1461020b57600080fd5b80632f8655681461010e5780633a5333bb146101305780634031234c1461015857806359c153be1461016e57600080fd5b3661010957005b600080fd5b34801561011a57600080fd5b5061012e610129366004611179565b610366565b005b34801561013c57600080fd5b50610145601281565b6040519081526020015b60405180910390f35b34801561016457600080fd5b5061014560045481565b34801561017a57600080fd5b5061012e6105ba565b34801561018f57600080fd5b506101456301e1338081565b61012e610721565b3480156101af57600080fd5b506101e96101be366004611179565b6001602081905260009182526040909120805491810154600282015460039092015490919060ff1684565b604080519485526020850193909352918301521515606082015260800161014f565b34801561021757600080fd5b5061014560035481565b34801561022d57600080fd5b5061014561023c366004611179565b610888565b34801561024d57600080fd5b5061014561025c366004611179565b610934565b34801561026d57600080fd5b5061014561027c366004611194565b6109a1565b34801561028d57600080fd5b50610145603c81565b3480156102a257600080fd5b506002546102b6906001600160a01b031681565b6040516001600160a01b03909116815260200161014f565b3480156102da57600080fd5b5061012e6102e93660046111be565b610a50565b3480156102fa57600080fd5b506101e9610309366004611179565b6001600160a01b0316600090815260016020819052604090912080549181015460028201546003909201549293909260ff1690565b34801561034a57600080fd5b506101456103593660046111d7565b610c58565b61012e610d0e565b6002546001600160a01b031633146103d15760405162461bcd60e51b815260206004820152602360248201527f4f6e6c79206c656e6465722063616e20706572666f726d20746869732061637460448201526234b7b760e91b60648201526084015b60405180910390fd5b6103d96110cd565b6001600160a01b0381166000908152600160205260409020600381015460ff166104365760405162461bcd60e51b815260206004820152600e60248201526d27379030b1ba34bb32903637b0b760911b60448201526064016103c8565b600061044f82600201544261112690919063ffffffff16565b90506000610461836001015483610c58565b9050600061047c82856001015461113990919063ffffffff16565b90506104a2606461049c600454876000015461114590919063ffffffff16565b90611151565b8110156104fb5760405162461bcd60e51b815260206004820152602160248201527f4c6f616e206e6f7420656c696769626c6520666f72206c69717569646174696f6044820152603760f91b60648201526084016103c8565b83546001600160a01b03808716600090815260016020819052604080832083815591820183905560028083018490556003909201805460ff191690559054905192169183156108fc0291849190818181858888f19350505050158015610565573d6000803e3d6000fd5b50604080516001600160a01b0388168152602081018390527fa5ee7a2b0254fce91deed604506790ed7fa072d0b14cba4859c3bc8955b9caac910160405180910390a150505050506105b76001600055565b50565b6105c26110cd565b336000908152600160205260409020805461061f5760405162461bcd60e51b815260206004820152601960248201527f4e6f20636f6c6c61746572616c20746f2077697468647261770000000000000060448201526064016103c8565b600381015460ff16156106805760405162461bcd60e51b8152602060048201526024808201527f43616e6e6f74207769746864726177207768696c65206c6f616e2069732061636044820152637469766560e01b60648201526084016103c8565b8054336000818152600160208190526040808320838155918201839055600282018390556003909101805460ff191690555183156108fc0291849190818181858888f193505050501580156106d9573d6000803e3d6000fd5b5060408051338152602081018390527fc30fcfbcaac9e0deffa719714eaa82396ff506a0d0d0eebe170830177288715d910160405180910390a1505061071f6001600055565b565b6107296110cd565b600034116107855760405162461bcd60e51b815260206004820152602360248201527f4d757374206465706f73697420736f6d652045544820617320636f6c6c6174656044820152621c985b60ea1b60648201526084016103c8565b3360009081526001602052604090206003015460ff16156107e85760405162461bcd60e51b815260206004820152601a60248201527f416c72656164792068617320616e20616374697665206c6f616e00000000000060448201526064016103c8565b33600081815260016020818152604080842060038101805483516080810185523480825281870189815242838801908152606084018b81529a8c9052898952925186555197850197909755516002909301929092559451151560ff199091161790935582519384528301527fd7243f6f8212d5188fd054141cf6ea89cfc0d91facb8c3afe2f88a1358480142910160405180910390a161071f6001600055565b6001600160a01b0381166000908152600160205260408120600381015460ff166108c45760405162461bcd60e51b81526004016103c8906111f9565b60006108dd82600201544261112690919063ffffffff16565b905060006108ef836001015483610c58565b9050600061090a82856001015461113990919063ffffffff16565b9050600061091d8560010154603c610c58565b90506109298282611139565b979650505050505050565b6001600160a01b0381166000908152600160205260408120600381015460ff166109705760405162461bcd60e51b81526004016103c8906111f9565b600061098982600201544261112690919063ffffffff16565b9050610999826001015482610c58565b949350505050565b6001600160a01b0382166000908152600160205260408120600381015460ff166109dd5760405162461bcd60e51b81526004016103c8906111f9565b60006109f682600201548561112690919063ffffffff16565b90506000610a08836001015483610c58565b90506000610a2382856001015461113990919063ffffffff16565b90506000610a368560010154603c610c58565b9050610a428282611139565b955050505050505b92915050565b610a586110cd565b3360009081526001602052604090208054610ab55760405162461bcd60e51b815260206004820152601760248201527f4e6f20636f6c6c61746572616c206465706f736974656400000000000000000060448201526064016103c8565b600381015460ff1615610b005760405162461bcd60e51b81526020600482015260136024820152724c6f616e20616c72656164792061637469766560681b60448201526064016103c8565b6004548154610b159160649161049c91611145565b821115610b795760405162461bcd60e51b815260206004820152602c60248201527f43616e6e6f7420626f72726f77206d6f7265207468616e20636f6c6c6174657260448201526b185b081d1a1c995cda1bdb1960a21b60648201526084016103c8565b81471015610bc95760405162461bcd60e51b815260206004820152601c60248201527f4e6f7420656e6f7567682066756e647320696e20636f6e74726163740000000060448201526064016103c8565b600180820183905542600283015560038201805460ff19169091179055604051339083156108fc029084906000818181858888f19350505050158015610c13573d6000803e3d6000fd5b5060408051338152602081018490527fd5c776eab9418d89c040ffee59f2310d225f5ff682191bcee59b0413a7fd4835910160405180910390a1506105b76001600055565b6000811580610c65575082155b15610c7257506000610a4a565b6000610c926301e1338061049c610c8b6012600a611324565b8690611145565b90506000610cb461271061049c610cab6012600a611324565b60035490611145565b90506000610cd1610cc76012600a611324565b61049c8885611145565b90506000610cee610ce46012600a611324565b61049c8487611145565b90508015610d0457610d01816001611139565b90505b9695505050505050565b610d166110cd565b336000908152600160205260409020600381015460ff16610d875760405162461bcd60e51b815260206004820152602560248201527f4e6f20616374697665206c6f616e20666f756e6420666f722074686973206164604482015264647265737360d81b60648201526084016103c8565b6000816001015411610dd15760405162461bcd60e51b8152602060048201526013602482015272125b9d985b1a59081b1bd85b88185b5bdd5b9d606a1b60448201526064016103c8565b6000610dea82600201544261112690919063ffffffff16565b90506000610dfc836001015483610c58565b90506000610e1782856001015461113990919063ffffffff16565b905060003411610e695760405162461bcd60e51b815260206004820152601b60248201527f4d7573742073656e642045544820746f207265706179206c6f616e000000000060448201526064016103c8565b80341015610eb95760405162461bcd60e51b815260206004820152601b60248201527f496e73756666696369656e74207061796d656e7420616d6f756e74000000000060448201526064016103c8565b8354600180860154336000908152602083905260408120818155928301819055600283018190556003909201805460ff1916905590849034851015610f0557610f023486611126565b90505b6000610f118583611139565b60025460405191925060009182916001600160a01b03169089908381818185875af1925050503d8060008114610f63576040519150601f19603f3d011682016040523d82523d6000602084013e610f68565b606091505b50508092505081610fca5760405162461bcd60e51b815260206004820152602660248201527f4661696c656420746f207472616e736665722072657061796d656e7420746f206044820152653632b73232b960d11b60648201526084016103c8565b82156110775760405133908490600081818185875af1925050503d8060008114611010576040519150601f19603f3d011682016040523d82523d6000602084013e611015565b606091505b505080915050806110775760405162461bcd60e51b815260206004820152602660248201527f4661696c656420746f2072657475726e20636f6c6c61746572616c20616e642060448201526565786365737360d01b60648201526084016103c8565b60408051338152602081018890529081018690527fc7ce0a35f17b490de2a317e7fecb2cae86b1abffb03800b2f4928235213826989060600160405180910390a1505050505050505050505061071f6001600055565b60026000540361111f5760405162461bcd60e51b815260206004820152601f60248201527f5265656e7472616e637947756172643a207265656e7472616e742063616c6c0060448201526064016103c8565b6002600055565b60006111328284611330565b9392505050565b60006111328284611343565b60006111328284611356565b6000611132828461136d565b80356001600160a01b038116811461117457600080fd5b919050565b60006020828403121561118b57600080fd5b6111328261115d565b600080604083850312156111a757600080fd5b6111b08361115d565b946020939093013593505050565b6000602082840312156111d057600080fd5b5035919050565b600080604083850312156111ea57600080fd5b50508035926020909101359150565b602080825260149082015273139bc81858dd1a5d99481b1bd85b88199bdd5b9960621b604082015260600190565b634e487b7160e01b600052601160045260246000fd5b6001815b60018411156112785780850481111561125c5761125c611227565b600184161561126a57908102905b60019390931c928002611241565b935093915050565b60008261128f57506001610a4a565b8161129c57506000610a4a565b81600181146112b257600281146112bc576112d8565b6001915050610a4a565b60ff8411156112cd576112cd611227565b50506001821b610a4a565b5060208310610133831016604e8410600b84101617156112fb575081810a610a4a565b611308600019848461123d565b806000190482111561131c5761131c611227565b029392505050565b60006111328383611280565b81810381811115610a4a57610a4a611227565b80820180821115610a4a57610a4a611227565b8082028115828204841417610a4a57610a4a611227565b60008261138a57634e487b7160e01b600052601260045260246000fd5b50049056fea2646970667358221220d2d512506d5ab1705ba2da508c946508f488b8581ddb486f654c52afda1a44d464736f6c634300081c0033",
  "linkReferences": {},
  "deployedLinkReferences": {}
}